{
  "contractName": "MyToken1155",
  "abi": [
    {
      "inputs": [],
      "stateMutability": "nonpayable",
      "type": "constructor"
    },
    {
      "anonymous": false,
      "inputs": [
        {
          "indexed": true,
          "internalType": "address",
          "name": "account",
          "type": "address"
        },
        {
          "indexed": true,
          "internalType": "address",
          "name": "operator",
          "type": "address"
        },
        {
          "indexed": false,
          "internalType": "bool",
          "name": "approved",
          "type": "bool"
        }
      ],
      "name": "ApprovalForAll",
      "type": "event"
    },
    {
      "anonymous": false,
      "inputs": [
        {
          "indexed": true,
          "internalType": "address",
          "name": "nftContract",
          "type": "address"
        },
        {
          "indexed": false,
          "internalType": "address",
          "name": "ownertoken",
          "type": "address"
        },
        {
          "indexed": true,
          "internalType": "uint256",
          "name": "tokenId",
          "type": "uint256"
        }
      ],
      "name": "MarketItemCreated",
      "type": "event"
    },
    {
      "anonymous": false,
      "inputs": [
        {
          "indexed": true,
          "internalType": "address",
          "name": "previousOwner",
          "type": "address"
        },
        {
          "indexed": true,
          "internalType": "address",
          "name": "newOwner",
          "type": "address"
        }
      ],
      "name": "OwnershipTransferred",
      "type": "event"
    },
    {
      "anonymous": false,
      "inputs": [
        {
          "indexed": true,
          "internalType": "address",
          "name": "operator",
          "type": "address"
        },
        {
          "indexed": true,
          "internalType": "address",
          "name": "from",
          "type": "address"
        },
        {
          "indexed": true,
          "internalType": "address",
          "name": "to",
          "type": "address"
        },
        {
          "indexed": false,
          "internalType": "uint256[]",
          "name": "ids",
          "type": "uint256[]"
        },
        {
          "indexed": false,
          "internalType": "uint256[]",
          "name": "values",
          "type": "uint256[]"
        }
      ],
      "name": "TransferBatch",
      "type": "event"
    },
    {
      "anonymous": false,
      "inputs": [
        {
          "indexed": true,
          "internalType": "address",
          "name": "operator",
          "type": "address"
        },
        {
          "indexed": true,
          "internalType": "address",
          "name": "from",
          "type": "address"
        },
        {
          "indexed": true,
          "internalType": "address",
          "name": "to",
          "type": "address"
        },
        {
          "indexed": false,
          "internalType": "uint256",
          "name": "id",
          "type": "uint256"
        },
        {
          "indexed": false,
          "internalType": "uint256",
          "name": "value",
          "type": "uint256"
        }
      ],
      "name": "TransferSingle",
      "type": "event"
    },
    {
      "anonymous": false,
      "inputs": [
        {
          "indexed": false,
          "internalType": "string",
          "name": "value",
          "type": "string"
        },
        {
          "indexed": true,
          "internalType": "uint256",
          "name": "id",
          "type": "uint256"
        }
      ],
      "name": "URI",
      "type": "event"
    },
    {
      "inputs": [
        {
          "internalType": "address",
          "name": "account",
          "type": "address"
        },
        {
          "internalType": "uint256",
          "name": "id",
          "type": "uint256"
        }
      ],
      "name": "balanceOf",
      "outputs": [
        {
          "internalType": "uint256",
          "name": "",
          "type": "uint256"
        }
      ],
      "stateMutability": "view",
      "type": "function",
      "constant": true
    },
    {
      "inputs": [
        {
          "internalType": "address[]",
          "name": "accounts",
          "type": "address[]"
        },
        {
          "internalType": "uint256[]",
          "name": "ids",
          "type": "uint256[]"
        }
      ],
      "name": "balanceOfBatch",
      "outputs": [
        {
          "internalType": "uint256[]",
          "name": "",
          "type": "uint256[]"
        }
      ],
      "stateMutability": "view",
      "type": "function",
      "constant": true
    },
    {
      "inputs": [
        {
          "internalType": "uint256",
          "name": "",
          "type": "uint256"
        }
      ],
      "name": "idToMarketItem",
      "outputs": [
        {
          "internalType": "address",
          "name": "nftContract",
          "type": "address"
        },
        {
          "internalType": "address payable",
          "name": "ownertoken",
          "type": "address"
        },
        {
          "internalType": "uint256",
          "name": "tokenId",
          "type": "uint256"
        }
      ],
      "stateMutability": "view",
      "type": "function",
      "constant": true
    },
    {
      "inputs": [
        {
          "internalType": "address",
          "name": "account",
          "type": "address"
        },
        {
          "internalType": "address",
          "name": "operator",
          "type": "address"
        }
      ],
      "name": "isApprovedForAll",
      "outputs": [
        {
          "internalType": "bool",
          "name": "",
          "type": "bool"
        }
      ],
      "stateMutability": "view",
      "type": "function",
      "constant": true
    },
    {
      "inputs": [],
      "name": "owner",
      "outputs": [
        {
          "internalType": "address",
          "name": "",
          "type": "address"
        }
      ],
      "stateMutability": "view",
      "type": "function",
      "constant": true
    },
    {
      "inputs": [],
      "name": "renounceOwnership",
      "outputs": [],
      "stateMutability": "nonpayable",
      "type": "function"
    },
    {
      "inputs": [
        {
          "internalType": "address",
          "name": "from",
          "type": "address"
        },
        {
          "internalType": "address",
          "name": "to",
          "type": "address"
        },
        {
          "internalType": "uint256[]",
          "name": "ids",
          "type": "uint256[]"
        },
        {
          "internalType": "uint256[]",
          "name": "amounts",
          "type": "uint256[]"
        },
        {
          "internalType": "bytes",
          "name": "data",
          "type": "bytes"
        }
      ],
      "name": "safeBatchTransferFrom",
      "outputs": [],
      "stateMutability": "nonpayable",
      "type": "function"
    },
    {
      "inputs": [
        {
          "internalType": "address",
          "name": "from",
          "type": "address"
        },
        {
          "internalType": "address",
          "name": "to",
          "type": "address"
        },
        {
          "internalType": "uint256",
          "name": "id",
          "type": "uint256"
        },
        {
          "internalType": "uint256",
          "name": "amount",
          "type": "uint256"
        },
        {
          "internalType": "bytes",
          "name": "data",
          "type": "bytes"
        }
      ],
      "name": "safeTransferFrom",
      "outputs": [],
      "stateMutability": "nonpayable",
      "type": "function"
    },
    {
      "inputs": [
        {
          "internalType": "address",
          "name": "operator",
          "type": "address"
        },
        {
          "internalType": "bool",
          "name": "approved",
          "type": "bool"
        }
      ],
      "name": "setApprovalForAll",
      "outputs": [],
      "stateMutability": "nonpayable",
      "type": "function"
    },
    {
      "inputs": [
        {
          "internalType": "bytes4",
          "name": "interfaceId",
          "type": "bytes4"
        }
      ],
      "name": "supportsInterface",
      "outputs": [
        {
          "internalType": "bool",
          "name": "",
          "type": "bool"
        }
      ],
      "stateMutability": "view",
      "type": "function",
      "constant": true
    },
    {
      "inputs": [],
      "name": "tokenERC20",
      "outputs": [
        {
          "internalType": "address",
          "name": "",
          "type": "address"
        }
      ],
      "stateMutability": "view",
      "type": "function",
      "constant": true
    },
    {
      "inputs": [
        {
          "internalType": "address",
          "name": "newOwner",
          "type": "address"
        }
      ],
      "name": "transferOwnership",
      "outputs": [],
      "stateMutability": "nonpayable",
      "type": "function"
    },
    {
      "inputs": [
        {
          "internalType": "uint256",
          "name": "",
          "type": "uint256"
        }
      ],
      "name": "uri",
      "outputs": [
        {
          "internalType": "string",
          "name": "",
          "type": "string"
        }
      ],
      "stateMutability": "view",
      "type": "function",
      "constant": true
    },
    {
      "inputs": [
        {
          "internalType": "address",
          "name": "_token",
          "type": "address"
        }
      ],
      "name": "SetTokenAddress",
      "outputs": [],
      "stateMutability": "nonpayable",
      "type": "function"
    },
    {
      "inputs": [
        {
          "internalType": "address",
          "name": "nftContract",
          "type": "address"
        },
        {
          "internalType": "uint256",
          "name": "tokenId",
          "type": "uint256"
        }
      ],
      "name": "Stake",
      "outputs": [],
      "stateMutability": "payable",
      "type": "function",
      "payable": true
    },
    {
      "inputs": [
        {
          "internalType": "address",
          "name": "nftContract",
          "type": "address"
        },
        {
          "internalType": "uint256",
          "name": "tokenId",
          "type": "uint256"
        }
      ],
      "name": "UnStack",
      "outputs": [],
      "stateMutability": "payable",
      "type": "function",
      "payable": true
    }
  ],
  "bytecode": "0x60806040523480156200001157600080fd5b506040518060200160405280600081525062000033816200006260201b60201c565b5062000054620000486200007e60201b60201c565b6200008660201b60201c565b600160048190555062000260565b80600290805190602001906200007a9291906200014c565b5050565b600033905090565b6000600360009054906101000a900473ffffffffffffffffffffffffffffffffffffffff16905081600360006101000a81548173ffffffffffffffffffffffffffffffffffffffff021916908373ffffffffffffffffffffffffffffffffffffffff1602179055508173ffffffffffffffffffffffffffffffffffffffff168173ffffffffffffffffffffffffffffffffffffffff167f8be0079c531659141344cd1fd0a4f28419497f9722a3daafe3b4186f6b6457e060405160405180910390a35050565b8280546200015a906200022b565b90600052602060002090601f0160209004810192826200017e5760008555620001ca565b82601f106200019957805160ff1916838001178555620001ca565b82800160010185558215620001ca579182015b82811115620001c9578251825591602001919060010190620001ac565b5b509050620001d99190620001dd565b5090565b5b80821115620001f8576000816000905550600101620001de565b5090565b7f4e487b7100000000000000000000000000000000000000000000000000000000600052602260045260246000fd5b600060028204905060018216806200024457607f821691505b6020821081036200025a5762000259620001fc565b5b50919050565b61341980620002706000396000f3fe6080604052600436106100f25760003560e01c80639d143e8e1161008a578063e985e9c511610059578063e985e9c51461032e578063ebedb8b31461036b578063f242432a14610387578063f2fde38b146103b0576100f2565b80639d143e8e1461027f578063a22cb465146102aa578063d4083833146102d3578063e61a70c0146102ef576100f2565b806333a7e739116100c657806333a7e739146101d75780634e1273f414610200578063715018a61461023d5780638da5cb5b14610254576100f2565b8062fdd58e146100f757806301ffc9a7146101345780630e89341c146101715780632eb2c2d6146101ae575b600080fd5b34801561010357600080fd5b5061011e60048036038101906101199190611e3a565b6103d9565b60405161012b9190611e89565b60405180910390f35b34801561014057600080fd5b5061015b60048036038101906101569190611efc565b6104a1565b6040516101689190611f44565b60405180910390f35b34801561017d57600080fd5b5061019860048036038101906101939190611f5f565b610583565b6040516101a59190612025565b60405180910390f35b3480156101ba57600080fd5b506101d560048036038101906101d09190612244565b610617565b005b3480156101e357600080fd5b506101fe60048036038101906101f99190612313565b6106b8565b005b34801561020c57600080fd5b5061022760048036038101906102229190612403565b610778565b6040516102349190612539565b60405180910390f35b34801561024957600080fd5b50610252610891565b005b34801561026057600080fd5b50610269610919565b604051610276919061256a565b60405180910390f35b34801561028b57600080fd5b50610294610943565b6040516102a1919061256a565b60405180910390f35b3480156102b657600080fd5b506102d160048036038101906102cc91906125b1565b610969565b005b6102ed60048036038101906102e89190611e3a565b61097f565b005b3480156102fb57600080fd5b5061031660048036038101906103119190611f5f565b610b9f565b60405161032593929190612612565b60405180910390f35b34801561033a57600080fd5b5061035560048036038101906103509190612649565b610c09565b6040516103629190611f44565b60405180910390f35b61038560048036038101906103809190611e3a565b610c9d565b005b34801561039357600080fd5b506103ae60048036038101906103a99190612689565b610e5e565b005b3480156103bc57600080fd5b506103d760048036038101906103d29190612313565b610eff565b005b60008073ffffffffffffffffffffffffffffffffffffffff168373ffffffffffffffffffffffffffffffffffffffff1603610449576040517f08c379a000000000000000000000000000000000000000000000000000000000815260040161044090612792565b60405180910390fd5b60008083815260200190815260200160002060008473ffffffffffffffffffffffffffffffffffffffff1673ffffffffffffffffffffffffffffffffffffffff16815260200190815260200160002054905092915050565b60007fd9b67a26000000000000000000000000000000000000000000000000000000007bffffffffffffffffffffffffffffffffffffffffffffffffffffffff1916827bffffffffffffffffffffffffffffffffffffffffffffffffffffffff1916148061056c57507f0e89341c000000000000000000000000000000000000000000000000000000007bffffffffffffffffffffffffffffffffffffffffffffffffffffffff1916827bffffffffffffffffffffffffffffffffffffffffffffffffffffffff1916145b8061057c575061057b82610ff6565b5b9050919050565b606060028054610592906127e1565b80601f01602080910402602001604051908101604052809291908181526020018280546105be906127e1565b801561060b5780601f106105e05761010080835404028352916020019161060b565b820191906000526020600020905b8154815290600101906020018083116105ee57829003601f168201915b50505050509050919050565b61061f611060565b73ffffffffffffffffffffffffffffffffffffffff168573ffffffffffffffffffffffffffffffffffffffff16148061066557506106648561065f611060565b610c09565b5b6106a4576040517f08c379a000000000000000000000000000000000000000000000000000000000815260040161069b90612884565b60405180910390fd5b6106b18585858585611068565b5050505050565b6106c0611060565b73ffffffffffffffffffffffffffffffffffffffff166106de610919565b73ffffffffffffffffffffffffffffffffffffffff1614610734576040517f08c379a000000000000000000000000000000000000000000000000000000000815260040161072b906128f0565b60405180910390fd5b80600660006101000a81548173ffffffffffffffffffffffffffffffffffffffff021916908373ffffffffffffffffffffffffffffffffffffffff16021790555050565b606081518351146107be576040517f08c379a00000000000000000000000000000000000000000000000000000000081526004016107b590612982565b60405180910390fd5b6000835167ffffffffffffffff8111156107db576107da61204c565b5b6040519080825280602002602001820160405280156108095781602001602082028036833780820191505090505b50905060005b84518110156108865761085685828151811061082e5761082d6129a2565b5b6020026020010151858381518110610849576108486129a2565b5b60200260200101516103d9565b828281518110610869576108686129a2565b5b6020026020010181815250508061087f90612a00565b905061080f565b508091505092915050565b610899611060565b73ffffffffffffffffffffffffffffffffffffffff166108b7610919565b73ffffffffffffffffffffffffffffffffffffffff161461090d576040517f08c379a0000000000000000000000000000000000000000000000000000000008152600401610904906128f0565b60405180910390fd5b6109176000611389565b565b6000600360009054906101000a900473ffffffffffffffffffffffffffffffffffffffff16905090565b600660009054906101000a900473ffffffffffffffffffffffffffffffffffffffff1681565b61097b610974611060565b838361144f565b5050565b6002600454036109c4576040517f08c379a00000000000000000000000000000000000000000000000000000000081526004016109bb90612a94565b60405180910390fd5b60026004819055506007600082815260200190815260200160002060010160009054906101000a900473ffffffffffffffffffffffffffffffffffffffff1673ffffffffffffffffffffffffffffffffffffffff163373ffffffffffffffffffffffffffffffffffffffff1614610a70576040517f08c379a0000000000000000000000000000000000000000000000000000000008152600401610a6790612b00565b60405180910390fd5b8173ffffffffffffffffffffffffffffffffffffffff166323b872dd3033846040518463ffffffff1660e01b8152600401610aad93929190612b20565b600060405180830381600087803b158015610ac757600080fd5b505af1158015610adb573d6000803e3d6000fd5b50505050600660009054906101000a900473ffffffffffffffffffffffffffffffffffffffff1673ffffffffffffffffffffffffffffffffffffffff166323b872dd610b25610919565b3360016040518463ffffffff1660e01b8152600401610b4693929190612b9c565b6020604051808303816000875af1158015610b65573d6000803e3d6000fd5b505050506040513d601f19601f82011682018060405250810190610b899190612be8565b50610b93816115bb565b60016004819055505050565b60076020528060005260406000206000915090508060000160009054906101000a900473ffffffffffffffffffffffffffffffffffffffff16908060010160009054906101000a900473ffffffffffffffffffffffffffffffffffffffff16908060020154905083565b6000600160008473ffffffffffffffffffffffffffffffffffffffff1673ffffffffffffffffffffffffffffffffffffffff16815260200190815260200160002060008373ffffffffffffffffffffffffffffffffffffffff1673ffffffffffffffffffffffffffffffffffffffff16815260200190815260200160002060009054906101000a900460ff16905092915050565b610ca76005611686565b60405180606001604052808373ffffffffffffffffffffffffffffffffffffffff1681526020013373ffffffffffffffffffffffffffffffffffffffff168152602001828152506007600083815260200190815260200160002060008201518160000160006101000a81548173ffffffffffffffffffffffffffffffffffffffff021916908373ffffffffffffffffffffffffffffffffffffffff16021790555060208201518160010160006101000a81548173ffffffffffffffffffffffffffffffffffffffff021916908373ffffffffffffffffffffffffffffffffffffffff160217905550604082015181600201559050508173ffffffffffffffffffffffffffffffffffffffff166323b872dd3330846040518463ffffffff1660e01b8152600401610dd993929190612b20565b600060405180830381600087803b158015610df357600080fd5b505af1158015610e07573d6000803e3d6000fd5b50505050808273ffffffffffffffffffffffffffffffffffffffff167f853e356e83b8c58cc4d665c480056e41d3e9367578517915fa3fff9b9f74cf0033604051610e529190612c6a565b60405180910390a35050565b610e66611060565b73ffffffffffffffffffffffffffffffffffffffff168573ffffffffffffffffffffffffffffffffffffffff161480610eac5750610eab85610ea6611060565b610c09565b5b610eeb576040517f08c379a0000000000000000000000000000000000000000000000000000000008152600401610ee290612cf7565b60405180910390fd5b610ef8858585858561169c565b5050505050565b610f07611060565b73ffffffffffffffffffffffffffffffffffffffff16610f25610919565b73ffffffffffffffffffffffffffffffffffffffff1614610f7b576040517f08c379a0000000000000000000000000000000000000000000000000000000008152600401610f72906128f0565b60405180910390fd5b600073ffffffffffffffffffffffffffffffffffffffff168173ffffffffffffffffffffffffffffffffffffffff1603610fea576040517f08c379a0000000000000000000000000000000000000000000000000000000008152600401610fe190612d89565b60405180910390fd5b610ff381611389565b50565b60007f01ffc9a7000000000000000000000000000000000000000000000000000000007bffffffffffffffffffffffffffffffffffffffffffffffffffffffff1916827bffffffffffffffffffffffffffffffffffffffffffffffffffffffff1916149050919050565b600033905090565b81518351146110ac576040517f08c379a00000000000000000000000000000000000000000000000000000000081526004016110a390612e1b565b60405180910390fd5b600073ffffffffffffffffffffffffffffffffffffffff168473ffffffffffffffffffffffffffffffffffffffff160361111b576040517f08c379a000000000000000000000000000000000000000000000000000000000815260040161111290612ead565b60405180910390fd5b6000611125611060565b9050611135818787878787611937565b60005b84518110156112e6576000858281518110611156576111556129a2565b5b602002602001015190506000858381518110611175576111746129a2565b5b60200260200101519050600080600084815260200190815260200160002060008b73ffffffffffffffffffffffffffffffffffffffff1673ffffffffffffffffffffffffffffffffffffffff16815260200190815260200160002054905081811015611216576040517f08c379a000000000000000000000000000000000000000000000000000000000815260040161120d90612f3f565b60405180910390fd5b81810360008085815260200190815260200160002060008c73ffffffffffffffffffffffffffffffffffffffff1673ffffffffffffffffffffffffffffffffffffffff168152602001908152602001600020819055508160008085815260200190815260200160002060008b73ffffffffffffffffffffffffffffffffffffffff1673ffffffffffffffffffffffffffffffffffffffff16815260200190815260200160002060008282546112cb9190612f5f565b92505081905550505050806112df90612a00565b9050611138565b508473ffffffffffffffffffffffffffffffffffffffff168673ffffffffffffffffffffffffffffffffffffffff168273ffffffffffffffffffffffffffffffffffffffff167f4a39dc06d4c0dbc64b70af90fd698a233a518aa5d07e595d983b8c0526c8f7fb878760405161135d929190612fb5565b60405180910390a461137381878787878761193f565b611381818787878787611947565b505050505050565b6000600360009054906101000a900473ffffffffffffffffffffffffffffffffffffffff16905081600360006101000a81548173ffffffffffffffffffffffffffffffffffffffff021916908373ffffffffffffffffffffffffffffffffffffffff1602179055508173ffffffffffffffffffffffffffffffffffffffff168173ffffffffffffffffffffffffffffffffffffffff167f8be0079c531659141344cd1fd0a4f28419497f9722a3daafe3b4186f6b6457e060405160405180910390a35050565b8173ffffffffffffffffffffffffffffffffffffffff168373ffffffffffffffffffffffffffffffffffffffff16036114bd576040517f08c379a00000000000000000000000000000000000000000000000000000000081526004016114b49061305e565b60405180910390fd5b80600160008573ffffffffffffffffffffffffffffffffffffffff1673ffffffffffffffffffffffffffffffffffffffff16815260200190815260200160002060008473ffffffffffffffffffffffffffffffffffffffff1673ffffffffffffffffffffffffffffffffffffffff16815260200190815260200160002060006101000a81548160ff0219169083151502179055508173ffffffffffffffffffffffffffffffffffffffff168373ffffffffffffffffffffffffffffffffffffffff167f17307eab39ab6107e8899845ad3d59bd9653f200f220920489ca2b5937696c31836040516115ae9190611f44565b60405180910390a3505050565b60006007600083815260200190815260200160002060000160006101000a81548173ffffffffffffffffffffffffffffffffffffffff021916908373ffffffffffffffffffffffffffffffffffffffff16021790555060006007600083815260200190815260200160002060010160006101000a81548173ffffffffffffffffffffffffffffffffffffffff021916908373ffffffffffffffffffffffffffffffffffffffff1602179055506000600760008381526020019081526020016000206002018190555050565b6001816000016000828254019250508190555050565b600073ffffffffffffffffffffffffffffffffffffffff168473ffffffffffffffffffffffffffffffffffffffff160361170b576040517f08c379a000000000000000000000000000000000000000000000000000000000815260040161170290612ead565b60405180910390fd5b6000611715611060565b9050600061172285611b1e565b9050600061172f85611b1e565b905061173f838989858589611937565b600080600088815260200190815260200160002060008a73ffffffffffffffffffffffffffffffffffffffff1673ffffffffffffffffffffffffffffffffffffffff168152602001908152602001600020549050858110156117d6576040517f08c379a00000000000000000000000000000000000000000000000000000000081526004016117cd90612f3f565b60405180910390fd5b85810360008089815260200190815260200160002060008b73ffffffffffffffffffffffffffffffffffffffff1673ffffffffffffffffffffffffffffffffffffffff168152602001908152602001600020819055508560008089815260200190815260200160002060008a73ffffffffffffffffffffffffffffffffffffffff1673ffffffffffffffffffffffffffffffffffffffff168152602001908152602001600020600082825461188b9190612f5f565b925050819055508773ffffffffffffffffffffffffffffffffffffffff168973ffffffffffffffffffffffffffffffffffffffff168573ffffffffffffffffffffffffffffffffffffffff167fc3d58168c5ae7397731d063d5bbf3d657854427343f4c083240f7aacaa2d0f628a8a60405161190892919061307e565b60405180910390a461191e848a8a86868a61193f565b61192c848a8a8a8a8a611b98565b505050505050505050565b505050505050565b505050505050565b6119668473ffffffffffffffffffffffffffffffffffffffff16611d6f565b15611b16578373ffffffffffffffffffffffffffffffffffffffff1663bc197c8187878686866040518663ffffffff1660e01b81526004016119ac9594939291906130fc565b6020604051808303816000875af19250505080156119e857506040513d601f19601f820116820180604052508101906119e59190613179565b60015b611a8d576119f46131b3565b806308c379a003611a505750611a086131d5565b80611a135750611a52565b806040517f08c379a0000000000000000000000000000000000000000000000000000000008152600401611a479190612025565b60405180910390fd5b505b6040517f08c379a0000000000000000000000000000000000000000000000000000000008152600401611a84906132d7565b60405180910390fd5b63bc197c8160e01b7bffffffffffffffffffffffffffffffffffffffffffffffffffffffff1916817bffffffffffffffffffffffffffffffffffffffffffffffffffffffff191614611b14576040517f08c379a0000000000000000000000000000000000000000000000000000000008152600401611b0b90613369565b60405180910390fd5b505b505050505050565b60606000600167ffffffffffffffff811115611b3d57611b3c61204c565b5b604051908082528060200260200182016040528015611b6b5781602001602082028036833780820191505090505b5090508281600081518110611b8357611b826129a2565b5b60200260200101818152505080915050919050565b611bb78473ffffffffffffffffffffffffffffffffffffffff16611d6f565b15611d67578373ffffffffffffffffffffffffffffffffffffffff1663f23a6e6187878686866040518663ffffffff1660e01b8152600401611bfd959493929190613389565b6020604051808303816000875af1925050508015611c3957506040513d601f19601f82011682018060405250810190611c369190613179565b60015b611cde57611c456131b3565b806308c379a003611ca15750611c596131d5565b80611c645750611ca3565b806040517f08c379a0000000000000000000000000000000000000000000000000000000008152600401611c989190612025565b60405180910390fd5b505b6040517f08c379a0000000000000000000000000000000000000000000000000000000008152600401611cd5906132d7565b60405180910390fd5b63f23a6e6160e01b7bffffffffffffffffffffffffffffffffffffffffffffffffffffffff1916817bffffffffffffffffffffffffffffffffffffffffffffffffffffffff191614611d65576040517f08c379a0000000000000000000000000000000000000000000000000000000008152600401611d5c90613369565b60405180910390fd5b505b505050505050565b6000808273ffffffffffffffffffffffffffffffffffffffff163b119050919050565b6000604051905090565b600080fd5b600080fd5b600073ffffffffffffffffffffffffffffffffffffffff82169050919050565b6000611dd182611da6565b9050919050565b611de181611dc6565b8114611dec57600080fd5b50565b600081359050611dfe81611dd8565b92915050565b6000819050919050565b611e1781611e04565b8114611e2257600080fd5b50565b600081359050611e3481611e0e565b92915050565b60008060408385031215611e5157611e50611d9c565b5b6000611e5f85828601611def565b9250506020611e7085828601611e25565b9150509250929050565b611e8381611e04565b82525050565b6000602082019050611e9e6000830184611e7a565b92915050565b60007fffffffff0000000000000000000000000000000000000000000000000000000082169050919050565b611ed981611ea4565b8114611ee457600080fd5b50565b600081359050611ef681611ed0565b92915050565b600060208284031215611f1257611f11611d9c565b5b6000611f2084828501611ee7565b91505092915050565b60008115159050919050565b611f3e81611f29565b82525050565b6000602082019050611f596000830184611f35565b92915050565b600060208284031215611f7557611f74611d9c565b5b6000611f8384828501611e25565b91505092915050565b600081519050919050565b600082825260208201905092915050565b60005b83811015611fc6578082015181840152602081019050611fab565b83811115611fd5576000848401525b50505050565b6000601f19601f8301169050919050565b6000611ff782611f8c565b6120018185611f97565b9350612011818560208601611fa8565b61201a81611fdb565b840191505092915050565b6000602082019050818103600083015261203f8184611fec565b905092915050565b600080fd5b7f4e487b7100000000000000000000000000000000000000000000000000000000600052604160045260246000fd5b61208482611fdb565b810181811067ffffffffffffffff821117156120a3576120a261204c565b5b80604052505050565b60006120b6611d92565b90506120c2828261207b565b919050565b600067ffffffffffffffff8211156120e2576120e161204c565b5b602082029050602081019050919050565b600080fd5b600061210b612106846120c7565b6120ac565b9050808382526020820190506020840283018581111561212e5761212d6120f3565b5b835b8181101561215757806121438882611e25565b845260208401935050602081019050612130565b5050509392505050565b600082601f83011261217657612175612047565b5b81356121868482602086016120f8565b91505092915050565b600080fd5b600067ffffffffffffffff8211156121af576121ae61204c565b5b6121b882611fdb565b9050602081019050919050565b82818337600083830152505050565b60006121e76121e284612194565b6120ac565b9050828152602081018484840111156122035761220261218f565b5b61220e8482856121c5565b509392505050565b600082601f83011261222b5761222a612047565b5b813561223b8482602086016121d4565b91505092915050565b600080600080600060a086880312156122605761225f611d9c565b5b600061226e88828901611def565b955050602061227f88828901611def565b945050604086013567ffffffffffffffff8111156122a05761229f611da1565b5b6122ac88828901612161565b935050606086013567ffffffffffffffff8111156122cd576122cc611da1565b5b6122d988828901612161565b925050608086013567ffffffffffffffff8111156122fa576122f9611da1565b5b61230688828901612216565b9150509295509295909350565b60006020828403121561232957612328611d9c565b5b600061233784828501611def565b91505092915050565b600067ffffffffffffffff82111561235b5761235a61204c565b5b602082029050602081019050919050565b600061237f61237a84612340565b6120ac565b905080838252602082019050602084028301858111156123a2576123a16120f3565b5b835b818110156123cb57806123b78882611def565b8452602084019350506020810190506123a4565b5050509392505050565b600082601f8301126123ea576123e9612047565b5b81356123fa84826020860161236c565b91505092915050565b6000806040838503121561241a57612419611d9c565b5b600083013567ffffffffffffffff81111561243857612437611da1565b5b612444858286016123d5565b925050602083013567ffffffffffffffff81111561246557612464611da1565b5b61247185828601612161565b9150509250929050565b600081519050919050565b600082825260208201905092915050565b6000819050602082019050919050565b6124b081611e04565b82525050565b60006124c283836124a7565b60208301905092915050565b6000602082019050919050565b60006124e68261247b565b6124f08185612486565b93506124fb83612497565b8060005b8381101561252c57815161251388826124b6565b975061251e836124ce565b9250506001810190506124ff565b5085935050505092915050565b6000602082019050818103600083015261255381846124db565b905092915050565b61256481611dc6565b82525050565b600060208201905061257f600083018461255b565b92915050565b61258e81611f29565b811461259957600080fd5b50565b6000813590506125ab81612585565b92915050565b600080604083850312156125c8576125c7611d9c565b5b60006125d685828601611def565b92505060206125e78582860161259c565b9150509250929050565b60006125fc82611da6565b9050919050565b61260c816125f1565b82525050565b6000606082019050612627600083018661255b565b6126346020830185612603565b6126416040830184611e7a565b949350505050565b600080604083850312156126605761265f611d9c565b5b600061266e85828601611def565b925050602061267f85828601611def565b9150509250929050565b600080600080600060a086880312156126a5576126a4611d9c565b5b60006126b388828901611def565b95505060206126c488828901611def565b94505060406126d588828901611e25565b93505060606126e688828901611e25565b925050608086013567ffffffffffffffff81111561270757612706611da1565b5b61271388828901612216565b9150509295509295909350565b7f455243313135353a2062616c616e636520717565727920666f7220746865207a60008201527f65726f2061646472657373000000000000000000000000000000000000000000602082015250565b600061277c602b83611f97565b915061278782612720565b604082019050919050565b600060208201905081810360008301526127ab8161276f565b9050919050565b7f4e487b7100000000000000000000000000000000000000000000000000000000600052602260045260246000fd5b600060028204905060018216806127f957607f821691505b60208210810361280c5761280b6127b2565b5b50919050565b7f455243313135353a207472616e736665722063616c6c6572206973206e6f742060008201527f6f776e6572206e6f7220617070726f7665640000000000000000000000000000602082015250565b600061286e603283611f97565b915061287982612812565b604082019050919050565b6000602082019050818103600083015261289d81612861565b9050919050565b7f4f776e61626c653a2063616c6c6572206973206e6f7420746865206f776e6572600082015250565b60006128da602083611f97565b91506128e5826128a4565b602082019050919050565b60006020820190508181036000830152612909816128cd565b9050919050565b7f455243313135353a206163636f756e747320616e6420696473206c656e67746860008201527f206d69736d617463680000000000000000000000000000000000000000000000602082015250565b600061296c602983611f97565b915061297782612910565b604082019050919050565b6000602082019050818103600083015261299b8161295f565b9050919050565b7f4e487b7100000000000000000000000000000000000000000000000000000000600052603260045260246000fd5b7f4e487b7100000000000000000000000000000000000000000000000000000000600052601160045260246000fd5b6000612a0b82611e04565b91507fffffffffffffffffffffffffffffffffffffffffffffffffffffffffffffffff8203612a3d57612a3c6129d1565b5b600182019050919050565b7f5265656e7472616e637947756172643a207265656e7472616e742063616c6c00600082015250565b6000612a7e601f83611f97565b9150612a8982612a48565b602082019050919050565b60006020820190508181036000830152612aad81612a71565b9050919050565b7f4e6f74204f776e657220546f6b656e0000000000000000000000000000000000600082015250565b6000612aea600f83611f97565b9150612af582612ab4565b602082019050919050565b60006020820190508181036000830152612b1981612add565b9050919050565b6000606082019050612b35600083018661255b565b612b42602083018561255b565b612b4f6040830184611e7a565b949350505050565b6000819050919050565b6000819050919050565b6000612b86612b81612b7c84612b57565b612b61565b611e04565b9050919050565b612b9681612b6b565b82525050565b6000606082019050612bb1600083018661255b565b612bbe602083018561255b565b612bcb6040830184612b8d565b949350505050565b600081519050612be281612585565b92915050565b600060208284031215612bfe57612bfd611d9c565b5b6000612c0c84828501612bd3565b91505092915050565b6000612c30612c2b612c2684611da6565b612b61565b611da6565b9050919050565b6000612c4282612c15565b9050919050565b6000612c5482612c37565b9050919050565b612c6481612c49565b82525050565b6000602082019050612c7f6000830184612c5b565b92915050565b7f455243313135353a2063616c6c6572206973206e6f74206f776e6572206e6f7260008201527f20617070726f7665640000000000000000000000000000000000000000000000602082015250565b6000612ce1602983611f97565b9150612cec82612c85565b604082019050919050565b60006020820190508181036000830152612d1081612cd4565b9050919050565b7f4f776e61626c653a206e6577206f776e657220697320746865207a65726f206160008201527f6464726573730000000000000000000000000000000000000000000000000000602082015250565b6000612d73602683611f97565b9150612d7e82612d17565b604082019050919050565b60006020820190508181036000830152612da281612d66565b9050919050565b7f455243313135353a2069647320616e6420616d6f756e7473206c656e6774682060008201527f6d69736d61746368000000000000000000000000000000000000000000000000602082015250565b6000612e05602883611f97565b9150612e1082612da9565b604082019050919050565b60006020820190508181036000830152612e3481612df8565b9050919050565b7f455243313135353a207472616e7366657220746f20746865207a65726f20616460008201527f6472657373000000000000000000000000000000000000000000000000000000602082015250565b6000612e97602583611f97565b9150612ea282612e3b565b604082019050919050565b60006020820190508181036000830152612ec681612e8a565b9050919050565b7f455243313135353a20696e73756666696369656e742062616c616e636520666f60008201527f72207472616e7366657200000000000000000000000000000000000000000000602082015250565b6000612f29602a83611f97565b9150612f3482612ecd565b604082019050919050565b60006020820190508181036000830152612f5881612f1c565b9050919050565b6000612f6a82611e04565b9150612f7583611e04565b9250827fffffffffffffffffffffffffffffffffffffffffffffffffffffffffffffffff03821115612faa57612fa96129d1565b5b828201905092915050565b60006040820190508181036000830152612fcf81856124db565b90508181036020830152612fe381846124db565b90509392505050565b7f455243313135353a2073657474696e6720617070726f76616c2073746174757360008201527f20666f722073656c660000000000000000000000000000000000000000000000602082015250565b6000613048602983611f97565b915061305382612fec565b604082019050919050565b600060208201905081810360008301526130778161303b565b9050919050565b60006040820190506130936000830185611e7a565b6130a06020830184611e7a565b9392505050565b600081519050919050565b600082825260208201905092915050565b60006130ce826130a7565b6130d881856130b2565b93506130e8818560208601611fa8565b6130f181611fdb565b840191505092915050565b600060a082019050613111600083018861255b565b61311e602083018761255b565b818103604083015261313081866124db565b9050818103606083015261314481856124db565b9050818103608083015261315881846130c3565b90509695505050505050565b60008151905061317381611ed0565b92915050565b60006020828403121561318f5761318e611d9c565b5b600061319d84828501613164565b91505092915050565b60008160e01c9050919050565b600060033d11156131d25760046000803e6131cf6000516131a6565b90505b90565b600060443d10613262576131e7611d92565b60043d036004823e80513d602482011167ffffffffffffffff8211171561320f575050613262565b808201805167ffffffffffffffff81111561322d5750505050613262565b80602083010160043d03850181111561324a575050505050613262565b6132598260200185018661207b565b82955050505050505b90565b7f455243313135353a207472616e7366657220746f206e6f6e204552433131353560008201527f526563656976657220696d706c656d656e746572000000000000000000000000602082015250565b60006132c1603483611f97565b91506132cc82613265565b604082019050919050565b600060208201905081810360008301526132f0816132b4565b9050919050565b7f455243313135353a204552433131353552656365697665722072656a6563746560008201527f6420746f6b656e73000000000000000000000000000000000000000000000000602082015250565b6000613353602883611f97565b915061335e826132f7565b604082019050919050565b6000602082019050818103600083015261338281613346565b9050919050565b600060a08201905061339e600083018861255b565b6133ab602083018761255b565b6133b86040830186611e7a565b6133c56060830185611e7a565b81810360808301526133d781846130c3565b9050969550505050505056fea2646970667358221220afebfd29123947e9cf385294e288bf9a90748d68e641cbf3e6ce22c1be39f66c64736f6c634300080d0033",
  "immutableReferences": {},
  "source": "//SPDX-License-Identifier:MIT\r\n\r\npragma solidity ^0.8.0;\r\n\r\n\r\nimport \"../node_modules/@openzeppelin/contracts/utils/Counters.sol\";\r\nimport \"../node_modules/@openzeppelin/contracts/token/ERC721/extensions/ERC721URIStorage.sol\";\r\nimport \"../node_modules/@openzeppelin/contracts/security/ReentrancyGuard.sol\";\r\nimport \"../node_modules/@openzeppelin/contracts/token/ERC721/ERC721.sol\";\r\nimport \"../node_modules/@openzeppelin/contracts/utils/Strings.sol\";\r\nimport \"../node_modules/@openzeppelin/contracts/access/Ownable.sol\";\r\n\r\nimport \"../node_modules/@openzeppelin/contracts/token/ERC1155/ERC1155.sol\";\r\n\r\n\r\nimport \"../node_modules/@openzeppelin/contracts/token/ERC20/ERC20.sol\";\r\nimport \"../node_modules/@openzeppelin/contracts/security/Pausable.sol\";\r\n\r\ncontract MyTokenERC20 is ERC20, Pausable, Ownable {\r\n\r\n    address Reward;\r\n\r\n    constructor(address reward) ERC20(\"TokenReward\", \"RWD\") {\r\n        _mint(msg.sender,1000);\r\n        Reward = reward;\r\n        approve(Reward, totalSupply());\r\n    }\r\n\r\n    function pause() public onlyOwner {\r\n        _pause();\r\n    }\r\n\r\n    function unpause() public onlyOwner {\r\n        _unpause();\r\n    }\r\n\r\n    function _beforeTokenTransfer(address from, address to, uint256 amount)\r\n        internal\r\n        whenNotPaused\r\n        override\r\n    {\r\n        super._beforeTokenTransfer(from, to, amount);\r\n    }\r\n}\r\n\r\ncontract MyToken1155 is ERC1155, Ownable, ReentrancyGuard {\r\n\r\n    using Counters for Counters.Counter;\r\n    Counters.Counter private _itemIds;\r\n\r\n    address public tokenERC20;\r\n\r\n    constructor() ERC1155(\"\") {}\r\n\r\n    struct MarketItem{\r\n        address nftContract;\r\n        address payable ownertoken;\r\n        uint256 tokenId;\r\n    }\r\n    event MarketItemCreated(\r\n        address indexed nftContract,\r\n        address ownertoken, \r\n        uint256 indexed tokenId\r\n    );\r\n\r\n    mapping(uint256 => MarketItem) public idToMarketItem;\r\n\r\n    function SetTokenAddress(address _token) external onlyOwner{\r\n        tokenERC20 = _token;\r\n    }\r\n\r\n    function Stake(address nftContract,uint256 tokenId)\r\n    public payable {\r\n\r\n        _itemIds.increment();\r\n        idToMarketItem[tokenId] = MarketItem(\r\n            nftContract,\r\n            payable(msg.sender),\r\n            tokenId\r\n        );\r\n\r\n        IERC721(nftContract).transferFrom(msg.sender, address(this), tokenId);\r\n        \r\n        emit MarketItemCreated(\r\n            nftContract,\r\n            payable(msg.sender),\r\n            tokenId\r\n        );\r\n    }\r\n\r\n    function UnStack(address nftContract,uint256 tokenId)external payable nonReentrant{\r\n        require(msg.sender == idToMarketItem[tokenId].ownertoken, \"Not Owner Token\");\r\n        IERC721(nftContract).transferFrom(address(this), msg.sender, tokenId);\r\n        IERC20(tokenERC20).transferFrom(owner(),msg.sender,1);\r\n        reset(tokenId);\r\n    }\r\n\r\n    function reset(uint256 tokenId)internal {\r\n        idToMarketItem[tokenId].nftContract = 0x0000000000000000000000000000000000000000;\r\n        idToMarketItem[tokenId].ownertoken = payable(0x0000000000000000000000000000000000000000);\r\n        idToMarketItem[tokenId].tokenId = 0;\r\n    }\r\n\r\n}\r\n\r\ncontract TokenERC721 is ERC721URIStorage{\r\n\r\n    using Counters for Counters.Counter;\r\n    using Strings for uint256;\r\n    Counters.Counter private _tokenIds;\r\n    address contractAddress;\r\n\r\n    constructor(address marketplaceAddress) ERC721(\"NFTStack\", \"STK\"){\r\n        contractAddress = marketplaceAddress;\r\n\r\n    }\r\n    \r\n    function createTokens() public returns (uint) {\r\n        _tokenIds.increment();\r\n        uint256 newItemId = _tokenIds.current();\r\n\r\n        _mint(msg.sender, newItemId);\r\n        _setTokenURI(newItemId, t());\r\n        setApprovalForAll(contractAddress, true);\r\n        return newItemId;\r\n    }\r\n\r\n\r\n    function t() private view returns(string memory){\r\n\r\n      string memory URL = \"ipfs://QmWjxHZXMXga1R3bKCbeFhszmdvT7cVYb7TxTtryi2SKSU/\";\r\n      uint256 newItemId = _tokenIds.current();\r\n      string memory baseExtension = \".json\";\r\n      return string(abi.encodePacked(URL, newItemId.toString(), baseExtension));\r\n    }\r\n}\r\n",
  "sourcePath": "C:\\Users\\Wenyx\\NftTokenStack\\my-app\\contracts\\NftTokenStack.sol",
  "compiler": {
    "name": "solc",
    "version": "0.8.13+commit.abaa5c0e.Emscripten.clang"
  },
  "schemaVersion": "3.4.6",
  "updatedAt": "2022-05-28T23:13:59.067Z",
  "networkType": "ethereum",
  "devdoc": {
    "kind": "dev",
    "methods": {
      "balanceOf(address,uint256)": {
        "details": "See {IERC1155-balanceOf}. Requirements: - `account` cannot be the zero address."
      },
      "balanceOfBatch(address[],uint256[])": {
        "details": "See {IERC1155-balanceOfBatch}. Requirements: - `accounts` and `ids` must have the same length."
      },
      "isApprovedForAll(address,address)": {
        "details": "See {IERC1155-isApprovedForAll}."
      },
      "owner()": {
        "details": "Returns the address of the current owner."
      },
      "renounceOwnership()": {
        "details": "Leaves the contract without owner. It will not be possible to call `onlyOwner` functions anymore. Can only be called by the current owner. NOTE: Renouncing ownership will leave the contract without an owner, thereby removing any functionality that is only available to the owner."
      },
      "safeBatchTransferFrom(address,address,uint256[],uint256[],bytes)": {
        "details": "See {IERC1155-safeBatchTransferFrom}."
      },
      "safeTransferFrom(address,address,uint256,uint256,bytes)": {
        "details": "See {IERC1155-safeTransferFrom}."
      },
      "setApprovalForAll(address,bool)": {
        "details": "See {IERC1155-setApprovalForAll}."
      },
      "supportsInterface(bytes4)": {
        "details": "See {IERC165-supportsInterface}."
      },
      "transferOwnership(address)": {
        "details": "Transfers ownership of the contract to a new account (`newOwner`). Can only be called by the current owner."
      },
      "uri(uint256)": {
        "details": "See {IERC1155MetadataURI-uri}. This implementation returns the same URI for *all* token types. It relies on the token type ID substitution mechanism https://eips.ethereum.org/EIPS/eip-1155#metadata[defined in the EIP]. Clients calling this function must replace the `\\{id\\}` substring with the actual token type ID."
      }
    },
    "version": 1
  },
  "userdoc": {
    "kind": "user",
    "methods": {},
    "version": 1
  }
}