{
  "contractName": "MyTokenERC20",
  "abi": [
    {
      "inputs": [
        {
          "internalType": "address",
          "name": "reward",
          "type": "address"
        }
      ],
      "stateMutability": "nonpayable",
      "type": "constructor"
    },
    {
      "anonymous": false,
      "inputs": [
        {
          "indexed": true,
          "internalType": "address",
          "name": "owner",
          "type": "address"
        },
        {
          "indexed": true,
          "internalType": "address",
          "name": "spender",
          "type": "address"
        },
        {
          "indexed": false,
          "internalType": "uint256",
          "name": "value",
          "type": "uint256"
        }
      ],
      "name": "Approval",
      "type": "event"
    },
    {
      "anonymous": false,
      "inputs": [
        {
          "indexed": true,
          "internalType": "address",
          "name": "previousOwner",
          "type": "address"
        },
        {
          "indexed": true,
          "internalType": "address",
          "name": "newOwner",
          "type": "address"
        }
      ],
      "name": "OwnershipTransferred",
      "type": "event"
    },
    {
      "anonymous": false,
      "inputs": [
        {
          "indexed": false,
          "internalType": "address",
          "name": "account",
          "type": "address"
        }
      ],
      "name": "Paused",
      "type": "event"
    },
    {
      "anonymous": false,
      "inputs": [
        {
          "indexed": true,
          "internalType": "address",
          "name": "from",
          "type": "address"
        },
        {
          "indexed": true,
          "internalType": "address",
          "name": "to",
          "type": "address"
        },
        {
          "indexed": false,
          "internalType": "uint256",
          "name": "value",
          "type": "uint256"
        }
      ],
      "name": "Transfer",
      "type": "event"
    },
    {
      "anonymous": false,
      "inputs": [
        {
          "indexed": false,
          "internalType": "address",
          "name": "account",
          "type": "address"
        }
      ],
      "name": "Unpaused",
      "type": "event"
    },
    {
      "inputs": [
        {
          "internalType": "address",
          "name": "owner",
          "type": "address"
        },
        {
          "internalType": "address",
          "name": "spender",
          "type": "address"
        }
      ],
      "name": "allowance",
      "outputs": [
        {
          "internalType": "uint256",
          "name": "",
          "type": "uint256"
        }
      ],
      "stateMutability": "view",
      "type": "function",
      "constant": true
    },
    {
      "inputs": [
        {
          "internalType": "address",
          "name": "spender",
          "type": "address"
        },
        {
          "internalType": "uint256",
          "name": "amount",
          "type": "uint256"
        }
      ],
      "name": "approve",
      "outputs": [
        {
          "internalType": "bool",
          "name": "",
          "type": "bool"
        }
      ],
      "stateMutability": "nonpayable",
      "type": "function"
    },
    {
      "inputs": [
        {
          "internalType": "address",
          "name": "account",
          "type": "address"
        }
      ],
      "name": "balanceOf",
      "outputs": [
        {
          "internalType": "uint256",
          "name": "",
          "type": "uint256"
        }
      ],
      "stateMutability": "view",
      "type": "function",
      "constant": true
    },
    {
      "inputs": [],
      "name": "decimals",
      "outputs": [
        {
          "internalType": "uint8",
          "name": "",
          "type": "uint8"
        }
      ],
      "stateMutability": "view",
      "type": "function",
      "constant": true
    },
    {
      "inputs": [
        {
          "internalType": "address",
          "name": "spender",
          "type": "address"
        },
        {
          "internalType": "uint256",
          "name": "subtractedValue",
          "type": "uint256"
        }
      ],
      "name": "decreaseAllowance",
      "outputs": [
        {
          "internalType": "bool",
          "name": "",
          "type": "bool"
        }
      ],
      "stateMutability": "nonpayable",
      "type": "function"
    },
    {
      "inputs": [
        {
          "internalType": "address",
          "name": "spender",
          "type": "address"
        },
        {
          "internalType": "uint256",
          "name": "addedValue",
          "type": "uint256"
        }
      ],
      "name": "increaseAllowance",
      "outputs": [
        {
          "internalType": "bool",
          "name": "",
          "type": "bool"
        }
      ],
      "stateMutability": "nonpayable",
      "type": "function"
    },
    {
      "inputs": [],
      "name": "name",
      "outputs": [
        {
          "internalType": "string",
          "name": "",
          "type": "string"
        }
      ],
      "stateMutability": "view",
      "type": "function",
      "constant": true
    },
    {
      "inputs": [],
      "name": "owner",
      "outputs": [
        {
          "internalType": "address",
          "name": "",
          "type": "address"
        }
      ],
      "stateMutability": "view",
      "type": "function",
      "constant": true
    },
    {
      "inputs": [],
      "name": "paused",
      "outputs": [
        {
          "internalType": "bool",
          "name": "",
          "type": "bool"
        }
      ],
      "stateMutability": "view",
      "type": "function",
      "constant": true
    },
    {
      "inputs": [],
      "name": "renounceOwnership",
      "outputs": [],
      "stateMutability": "nonpayable",
      "type": "function"
    },
    {
      "inputs": [],
      "name": "symbol",
      "outputs": [
        {
          "internalType": "string",
          "name": "",
          "type": "string"
        }
      ],
      "stateMutability": "view",
      "type": "function",
      "constant": true
    },
    {
      "inputs": [],
      "name": "totalSupply",
      "outputs": [
        {
          "internalType": "uint256",
          "name": "",
          "type": "uint256"
        }
      ],
      "stateMutability": "view",
      "type": "function",
      "constant": true
    },
    {
      "inputs": [
        {
          "internalType": "address",
          "name": "to",
          "type": "address"
        },
        {
          "internalType": "uint256",
          "name": "amount",
          "type": "uint256"
        }
      ],
      "name": "transfer",
      "outputs": [
        {
          "internalType": "bool",
          "name": "",
          "type": "bool"
        }
      ],
      "stateMutability": "nonpayable",
      "type": "function"
    },
    {
      "inputs": [
        {
          "internalType": "address",
          "name": "from",
          "type": "address"
        },
        {
          "internalType": "address",
          "name": "to",
          "type": "address"
        },
        {
          "internalType": "uint256",
          "name": "amount",
          "type": "uint256"
        }
      ],
      "name": "transferFrom",
      "outputs": [
        {
          "internalType": "bool",
          "name": "",
          "type": "bool"
        }
      ],
      "stateMutability": "nonpayable",
      "type": "function"
    },
    {
      "inputs": [
        {
          "internalType": "address",
          "name": "newOwner",
          "type": "address"
        }
      ],
      "name": "transferOwnership",
      "outputs": [],
      "stateMutability": "nonpayable",
      "type": "function"
    },
    {
      "inputs": [],
      "name": "pause",
      "outputs": [],
      "stateMutability": "nonpayable",
      "type": "function"
    },
    {
      "inputs": [],
      "name": "unpause",
      "outputs": [],
      "stateMutability": "nonpayable",
      "type": "function"
    }
  ],
  "bytecode": "0x60806040523480156200001157600080fd5b50604051620025aa380380620025aa8339818101604052810190620000379190620007b1565b6040518060400160405280600b81526020017f546f6b656e5265776172640000000000000000000000000000000000000000008152506040518060400160405280600381526020017f52574400000000000000000000000000000000000000000000000000000000008152508160039080519060200190620000bb92919062000697565b508060049080519060200190620000d492919062000697565b5050506000600560006101000a81548160ff0219169083151502179055506200011262000106620001b260201b60201c565b620001ba60201b60201c565b62000126336103e86200028060201b60201c565b80600660006101000a81548173ffffffffffffffffffffffffffffffffffffffff021916908373ffffffffffffffffffffffffffffffffffffffff160217905550620001aa600660009054906101000a900473ffffffffffffffffffffffffffffffffffffffff166200019e620003f860201b60201c565b6200040260201b60201c565b505062000b30565b600033905090565b6000600560019054906101000a900473ffffffffffffffffffffffffffffffffffffffff16905081600560016101000a81548173ffffffffffffffffffffffffffffffffffffffff021916908373ffffffffffffffffffffffffffffffffffffffff1602179055508173ffffffffffffffffffffffffffffffffffffffff168173ffffffffffffffffffffffffffffffffffffffff167f8be0079c531659141344cd1fd0a4f28419497f9722a3daafe3b4186f6b6457e060405160405180910390a35050565b600073ffffffffffffffffffffffffffffffffffffffff168273ffffffffffffffffffffffffffffffffffffffff1603620002f2576040517f08c379a0000000000000000000000000000000000000000000000000000000008152600401620002e99062000844565b60405180910390fd5b62000306600083836200043560201b60201c565b80600260008282546200031a91906200089f565b92505081905550806000808473ffffffffffffffffffffffffffffffffffffffff1673ffffffffffffffffffffffffffffffffffffffff16815260200190815260200160002060008282546200037191906200089f565b925050819055508173ffffffffffffffffffffffffffffffffffffffff16600073ffffffffffffffffffffffffffffffffffffffff167fddf252ad1be2c89b69c2b068fc378daa952ba7f163c4a11628f55a4df523b3ef83604051620003d891906200090d565b60405180910390a3620003f460008383620004a560201b60201c565b5050565b6000600254905090565b60008062000415620001b260201b60201c565b90506200042a818585620004aa60201b60201c565b600191505092915050565b620004456200067b60201b60201c565b1562000488576040517f08c379a00000000000000000000000000000000000000000000000000000000081526004016200047f906200097a565b60405180910390fd5b620004a08383836200069260201b620009431760201c565b505050565b505050565b600073ffffffffffffffffffffffffffffffffffffffff168373ffffffffffffffffffffffffffffffffffffffff16036200051c576040517f08c379a0000000000000000000000000000000000000000000000000000000008152600401620005139062000a12565b60405180910390fd5b600073ffffffffffffffffffffffffffffffffffffffff168273ffffffffffffffffffffffffffffffffffffffff16036200058e576040517f08c379a0000000000000000000000000000000000000000000000000000000008152600401620005859062000aaa565b60405180910390fd5b80600160008573ffffffffffffffffffffffffffffffffffffffff1673ffffffffffffffffffffffffffffffffffffffff16815260200190815260200160002060008473ffffffffffffffffffffffffffffffffffffffff1673ffffffffffffffffffffffffffffffffffffffff168152602001908152602001600020819055508173ffffffffffffffffffffffffffffffffffffffff168373ffffffffffffffffffffffffffffffffffffffff167f8c5be1e5ebec7d5bd14f71427d1e84f3dd0314c0f7b2291e5b200ac8c7c3b925836040516200066e91906200090d565b60405180910390a3505050565b6000600560009054906101000a900460ff16905090565b505050565b828054620006a59062000afb565b90600052602060002090601f016020900481019282620006c9576000855562000715565b82601f10620006e457805160ff191683800117855562000715565b8280016001018555821562000715579182015b8281111562000714578251825591602001919060010190620006f7565b5b50905062000724919062000728565b5090565b5b808211156200074357600081600090555060010162000729565b5090565b600080fd5b600073ffffffffffffffffffffffffffffffffffffffff82169050919050565b600062000779826200074c565b9050919050565b6200078b816200076c565b81146200079757600080fd5b50565b600081519050620007ab8162000780565b92915050565b600060208284031215620007ca57620007c962000747565b5b6000620007da848285016200079a565b91505092915050565b600082825260208201905092915050565b7f45524332303a206d696e7420746f20746865207a65726f206164647265737300600082015250565b60006200082c601f83620007e3565b91506200083982620007f4565b602082019050919050565b600060208201905081810360008301526200085f816200081d565b9050919050565b6000819050919050565b7f4e487b7100000000000000000000000000000000000000000000000000000000600052601160045260246000fd5b6000620008ac8262000866565b9150620008b98362000866565b9250827fffffffffffffffffffffffffffffffffffffffffffffffffffffffffffffffff03821115620008f157620008f062000870565b5b828201905092915050565b620009078162000866565b82525050565b6000602082019050620009246000830184620008fc565b92915050565b7f5061757361626c653a2070617573656400000000000000000000000000000000600082015250565b600062000962601083620007e3565b91506200096f826200092a565b602082019050919050565b60006020820190508181036000830152620009958162000953565b9050919050565b7f45524332303a20617070726f76652066726f6d20746865207a65726f2061646460008201527f7265737300000000000000000000000000000000000000000000000000000000602082015250565b6000620009fa602483620007e3565b915062000a07826200099c565b604082019050919050565b6000602082019050818103600083015262000a2d81620009eb565b9050919050565b7f45524332303a20617070726f766520746f20746865207a65726f20616464726560008201527f7373000000000000000000000000000000000000000000000000000000000000602082015250565b600062000a92602283620007e3565b915062000a9f8262000a34565b604082019050919050565b6000602082019050818103600083015262000ac58162000a83565b9050919050565b7f4e487b7100000000000000000000000000000000000000000000000000000000600052602260045260246000fd5b6000600282049050600182168062000b1457607f821691505b60208210810362000b2a5762000b2962000acc565b5b50919050565b611a6a8062000b406000396000f3fe608060405234801561001057600080fd5b506004361061010b5760003560e01c806370a08231116100a257806395d89b411161007157806395d89b4114610284578063a457c2d7146102a2578063a9059cbb146102d2578063dd62ed3e14610302578063f2fde38b146103325761010b565b806370a0823114610222578063715018a6146102525780638456cb591461025c5780638da5cb5b146102665761010b565b8063313ce567116100de578063313ce567146101ac57806339509351146101ca5780633f4ba83a146101fa5780635c975abb146102045761010b565b806306fdde0314610110578063095ea7b31461012e57806318160ddd1461015e57806323b872dd1461017c575b600080fd5b61011861034e565b6040516101259190611125565b60405180910390f35b610148600480360381019061014391906111e0565b6103e0565b604051610155919061123b565b60405180910390f35b610166610403565b6040516101739190611265565b60405180910390f35b61019660048036038101906101919190611280565b61040d565b6040516101a3919061123b565b60405180910390f35b6101b461043c565b6040516101c191906112ef565b60405180910390f35b6101e460048036038101906101df91906111e0565b610445565b6040516101f1919061123b565b60405180910390f35b61020261047c565b005b61020c610502565b604051610219919061123b565b60405180910390f35b61023c6004803603810190610237919061130a565b610519565b6040516102499190611265565b60405180910390f35b61025a610561565b005b6102646105e9565b005b61026e61066f565b60405161027b9190611346565b60405180910390f35b61028c610699565b6040516102999190611125565b60405180910390f35b6102bc60048036038101906102b791906111e0565b61072b565b6040516102c9919061123b565b60405180910390f35b6102ec60048036038101906102e791906111e0565b6107a2565b6040516102f9919061123b565b60405180910390f35b61031c60048036038101906103179190611361565b6107c5565b6040516103299190611265565b60405180910390f35b61034c6004803603810190610347919061130a565b61084c565b005b60606003805461035d906113d0565b80601f0160208091040260200160405190810160405280929190818152602001828054610389906113d0565b80156103d65780601f106103ab576101008083540402835291602001916103d6565b820191906000526020600020905b8154815290600101906020018083116103b957829003601f168201915b5050505050905090565b6000806103eb610948565b90506103f8818585610950565b600191505092915050565b6000600254905090565b600080610418610948565b9050610425858285610b19565b610430858585610ba5565b60019150509392505050565b60006012905090565b600080610450610948565b905061047181858561046285896107c5565b61046c9190611430565b610950565b600191505092915050565b610484610948565b73ffffffffffffffffffffffffffffffffffffffff166104a261066f565b73ffffffffffffffffffffffffffffffffffffffff16146104f8576040517f08c379a00000000000000000000000000000000000000000000000000000000081526004016104ef906114d2565b60405180910390fd5b610500610e24565b565b6000600560009054906101000a900460ff16905090565b60008060008373ffffffffffffffffffffffffffffffffffffffff1673ffffffffffffffffffffffffffffffffffffffff168152602001908152602001600020549050919050565b610569610948565b73ffffffffffffffffffffffffffffffffffffffff1661058761066f565b73ffffffffffffffffffffffffffffffffffffffff16146105dd576040517f08c379a00000000000000000000000000000000000000000000000000000000081526004016105d4906114d2565b60405180910390fd5b6105e76000610ec6565b565b6105f1610948565b73ffffffffffffffffffffffffffffffffffffffff1661060f61066f565b73ffffffffffffffffffffffffffffffffffffffff1614610665576040517f08c379a000000000000000000000000000000000000000000000000000000000815260040161065c906114d2565b60405180910390fd5b61066d610f8c565b565b6000600560019054906101000a900473ffffffffffffffffffffffffffffffffffffffff16905090565b6060600480546106a8906113d0565b80601f01602080910402602001604051908101604052809291908181526020018280546106d4906113d0565b80156107215780601f106106f657610100808354040283529160200191610721565b820191906000526020600020905b81548152906001019060200180831161070457829003601f168201915b5050505050905090565b600080610736610948565b9050600061074482866107c5565b905083811015610789576040517f08c379a000000000000000000000000000000000000000000000000000000000815260040161078090611564565b60405180910390fd5b6107968286868403610950565b60019250505092915050565b6000806107ad610948565b90506107ba818585610ba5565b600191505092915050565b6000600160008473ffffffffffffffffffffffffffffffffffffffff1673ffffffffffffffffffffffffffffffffffffffff16815260200190815260200160002060008373ffffffffffffffffffffffffffffffffffffffff1673ffffffffffffffffffffffffffffffffffffffff16815260200190815260200160002054905092915050565b610854610948565b73ffffffffffffffffffffffffffffffffffffffff1661087261066f565b73ffffffffffffffffffffffffffffffffffffffff16146108c8576040517f08c379a00000000000000000000000000000000000000000000000000000000081526004016108bf906114d2565b60405180910390fd5b600073ffffffffffffffffffffffffffffffffffffffff168173ffffffffffffffffffffffffffffffffffffffff1603610937576040517f08c379a000000000000000000000000000000000000000000000000000000000815260040161092e906115f6565b60405180910390fd5b61094081610ec6565b50565b505050565b600033905090565b600073ffffffffffffffffffffffffffffffffffffffff168373ffffffffffffffffffffffffffffffffffffffff16036109bf576040517f08c379a00000000000000000000000000000000000000000000000000000000081526004016109b690611688565b60405180910390fd5b600073ffffffffffffffffffffffffffffffffffffffff168273ffffffffffffffffffffffffffffffffffffffff1603610a2e576040517f08c379a0000000000000000000000000000000000000000000000000000000008152600401610a259061171a565b60405180910390fd5b80600160008573ffffffffffffffffffffffffffffffffffffffff1673ffffffffffffffffffffffffffffffffffffffff16815260200190815260200160002060008473ffffffffffffffffffffffffffffffffffffffff1673ffffffffffffffffffffffffffffffffffffffff168152602001908152602001600020819055508173ffffffffffffffffffffffffffffffffffffffff168373ffffffffffffffffffffffffffffffffffffffff167f8c5be1e5ebec7d5bd14f71427d1e84f3dd0314c0f7b2291e5b200ac8c7c3b92583604051610b0c9190611265565b60405180910390a3505050565b6000610b2584846107c5565b90507fffffffffffffffffffffffffffffffffffffffffffffffffffffffffffffffff8114610b9f5781811015610b91576040517f08c379a0000000000000000000000000000000000000000000000000000000008152600401610b8890611786565b60405180910390fd5b610b9e8484848403610950565b5b50505050565b600073ffffffffffffffffffffffffffffffffffffffff168373ffffffffffffffffffffffffffffffffffffffff1603610c14576040517f08c379a0000000000000000000000000000000000000000000000000000000008152600401610c0b90611818565b60405180910390fd5b600073ffffffffffffffffffffffffffffffffffffffff168273ffffffffffffffffffffffffffffffffffffffff1603610c83576040517f08c379a0000000000000000000000000000000000000000000000000000000008152600401610c7a906118aa565b60405180910390fd5b610c8e83838361102f565b60008060008573ffffffffffffffffffffffffffffffffffffffff1673ffffffffffffffffffffffffffffffffffffffff16815260200190815260200160002054905081811015610d14576040517f08c379a0000000000000000000000000000000000000000000000000000000008152600401610d0b9061193c565b60405180910390fd5b8181036000808673ffffffffffffffffffffffffffffffffffffffff1673ffffffffffffffffffffffffffffffffffffffff16815260200190815260200160002081905550816000808573ffffffffffffffffffffffffffffffffffffffff1673ffffffffffffffffffffffffffffffffffffffff1681526020019081526020016000206000828254610da79190611430565b925050819055508273ffffffffffffffffffffffffffffffffffffffff168473ffffffffffffffffffffffffffffffffffffffff167fddf252ad1be2c89b69c2b068fc378daa952ba7f163c4a11628f55a4df523b3ef84604051610e0b9190611265565b60405180910390a3610e1e848484611087565b50505050565b610e2c610502565b610e6b576040517f08c379a0000000000000000000000000000000000000000000000000000000008152600401610e62906119a8565b60405180910390fd5b6000600560006101000a81548160ff0219169083151502179055507f5db9ee0a495bf2e6ff9c91a7834c1ba4fdd244a5e8aa4e537bd38aeae4b073aa610eaf610948565b604051610ebc9190611346565b60405180910390a1565b6000600560019054906101000a900473ffffffffffffffffffffffffffffffffffffffff16905081600560016101000a81548173ffffffffffffffffffffffffffffffffffffffff021916908373ffffffffffffffffffffffffffffffffffffffff1602179055508173ffffffffffffffffffffffffffffffffffffffff168173ffffffffffffffffffffffffffffffffffffffff167f8be0079c531659141344cd1fd0a4f28419497f9722a3daafe3b4186f6b6457e060405160405180910390a35050565b610f94610502565b15610fd4576040517f08c379a0000000000000000000000000000000000000000000000000000000008152600401610fcb90611a14565b60405180910390fd5b6001600560006101000a81548160ff0219169083151502179055507f62e78cea01bee320cd4e420270b5ea74000d11b0c9f74754ebdbfc544b05a258611018610948565b6040516110259190611346565b60405180910390a1565b611037610502565b15611077576040517f08c379a000000000000000000000000000000000000000000000000000000000815260040161106e90611a14565b60405180910390fd5b611082838383610943565b505050565b505050565b600081519050919050565b600082825260208201905092915050565b60005b838110156110c65780820151818401526020810190506110ab565b838111156110d5576000848401525b50505050565b6000601f19601f8301169050919050565b60006110f78261108c565b6111018185611097565b93506111118185602086016110a8565b61111a816110db565b840191505092915050565b6000602082019050818103600083015261113f81846110ec565b905092915050565b600080fd5b600073ffffffffffffffffffffffffffffffffffffffff82169050919050565b60006111778261114c565b9050919050565b6111878161116c565b811461119257600080fd5b50565b6000813590506111a48161117e565b92915050565b6000819050919050565b6111bd816111aa565b81146111c857600080fd5b50565b6000813590506111da816111b4565b92915050565b600080604083850312156111f7576111f6611147565b5b600061120585828601611195565b9250506020611216858286016111cb565b9150509250929050565b60008115159050919050565b61123581611220565b82525050565b6000602082019050611250600083018461122c565b92915050565b61125f816111aa565b82525050565b600060208201905061127a6000830184611256565b92915050565b60008060006060848603121561129957611298611147565b5b60006112a786828701611195565b93505060206112b886828701611195565b92505060406112c9868287016111cb565b9150509250925092565b600060ff82169050919050565b6112e9816112d3565b82525050565b600060208201905061130460008301846112e0565b92915050565b6000602082840312156113205761131f611147565b5b600061132e84828501611195565b91505092915050565b6113408161116c565b82525050565b600060208201905061135b6000830184611337565b92915050565b6000806040838503121561137857611377611147565b5b600061138685828601611195565b925050602061139785828601611195565b9150509250929050565b7f4e487b7100000000000000000000000000000000000000000000000000000000600052602260045260246000fd5b600060028204905060018216806113e857607f821691505b6020821081036113fb576113fa6113a1565b5b50919050565b7f4e487b7100000000000000000000000000000000000000000000000000000000600052601160045260246000fd5b600061143b826111aa565b9150611446836111aa565b9250827fffffffffffffffffffffffffffffffffffffffffffffffffffffffffffffffff0382111561147b5761147a611401565b5b828201905092915050565b7f4f776e61626c653a2063616c6c6572206973206e6f7420746865206f776e6572600082015250565b60006114bc602083611097565b91506114c782611486565b602082019050919050565b600060208201905081810360008301526114eb816114af565b9050919050565b7f45524332303a2064656372656173656420616c6c6f77616e63652062656c6f7760008201527f207a65726f000000000000000000000000000000000000000000000000000000602082015250565b600061154e602583611097565b9150611559826114f2565b604082019050919050565b6000602082019050818103600083015261157d81611541565b9050919050565b7f4f776e61626c653a206e6577206f776e657220697320746865207a65726f206160008201527f6464726573730000000000000000000000000000000000000000000000000000602082015250565b60006115e0602683611097565b91506115eb82611584565b604082019050919050565b6000602082019050818103600083015261160f816115d3565b9050919050565b7f45524332303a20617070726f76652066726f6d20746865207a65726f2061646460008201527f7265737300000000000000000000000000000000000000000000000000000000602082015250565b6000611672602483611097565b915061167d82611616565b604082019050919050565b600060208201905081810360008301526116a181611665565b9050919050565b7f45524332303a20617070726f766520746f20746865207a65726f20616464726560008201527f7373000000000000000000000000000000000000000000000000000000000000602082015250565b6000611704602283611097565b915061170f826116a8565b604082019050919050565b60006020820190508181036000830152611733816116f7565b9050919050565b7f45524332303a20696e73756666696369656e7420616c6c6f77616e6365000000600082015250565b6000611770601d83611097565b915061177b8261173a565b602082019050919050565b6000602082019050818103600083015261179f81611763565b9050919050565b7f45524332303a207472616e736665722066726f6d20746865207a65726f20616460008201527f6472657373000000000000000000000000000000000000000000000000000000602082015250565b6000611802602583611097565b915061180d826117a6565b604082019050919050565b60006020820190508181036000830152611831816117f5565b9050919050565b7f45524332303a207472616e7366657220746f20746865207a65726f206164647260008201527f6573730000000000000000000000000000000000000000000000000000000000602082015250565b6000611894602383611097565b915061189f82611838565b604082019050919050565b600060208201905081810360008301526118c381611887565b9050919050565b7f45524332303a207472616e7366657220616d6f756e742065786365656473206260008201527f616c616e63650000000000000000000000000000000000000000000000000000602082015250565b6000611926602683611097565b9150611931826118ca565b604082019050919050565b6000602082019050818103600083015261195581611919565b9050919050565b7f5061757361626c653a206e6f7420706175736564000000000000000000000000600082015250565b6000611992601483611097565b915061199d8261195c565b602082019050919050565b600060208201905081810360008301526119c181611985565b9050919050565b7f5061757361626c653a2070617573656400000000000000000000000000000000600082015250565b60006119fe601083611097565b9150611a09826119c8565b602082019050919050565b60006020820190508181036000830152611a2d816119f1565b905091905056fea2646970667358221220f03518c02eba1f015a3c74e42af6894b01a8273495863c227fd48392ce17a65e64736f6c634300080d0033",
  "immutableReferences": {},
  "source": "//SPDX-License-Identifier:MIT\r\n\r\npragma solidity ^0.8.0;\r\n\r\n\r\nimport \"../node_modules/@openzeppelin/contracts/utils/Counters.sol\";\r\nimport \"../node_modules/@openzeppelin/contracts/token/ERC721/extensions/ERC721URIStorage.sol\";\r\nimport \"../node_modules/@openzeppelin/contracts/security/ReentrancyGuard.sol\";\r\nimport \"../node_modules/@openzeppelin/contracts/token/ERC721/ERC721.sol\";\r\nimport \"../node_modules/@openzeppelin/contracts/utils/Strings.sol\";\r\nimport \"../node_modules/@openzeppelin/contracts/access/Ownable.sol\";\r\n\r\nimport \"../node_modules/@openzeppelin/contracts/token/ERC1155/ERC1155.sol\";\r\n\r\n\r\nimport \"../node_modules/@openzeppelin/contracts/token/ERC20/ERC20.sol\";\r\nimport \"../node_modules/@openzeppelin/contracts/security/Pausable.sol\";\r\n\r\ncontract MyTokenERC20 is ERC20, Pausable, Ownable {\r\n\r\n    address Reward;\r\n\r\n    constructor(address reward) ERC20(\"TokenReward\", \"RWD\") {\r\n        _mint(msg.sender,1000);\r\n        Reward = reward;\r\n        approve(Reward, totalSupply());\r\n    }\r\n\r\n    function pause() public onlyOwner {\r\n        _pause();\r\n    }\r\n\r\n    function unpause() public onlyOwner {\r\n        _unpause();\r\n    }\r\n\r\n    function _beforeTokenTransfer(address from, address to, uint256 amount)\r\n        internal\r\n        whenNotPaused\r\n        override\r\n    {\r\n        super._beforeTokenTransfer(from, to, amount);\r\n    }\r\n}\r\n\r\ncontract MyToken1155 is ERC1155, Ownable, ReentrancyGuard {\r\n\r\n    using Counters for Counters.Counter;\r\n    Counters.Counter private _itemIds;\r\n\r\n    address public tokenERC20;\r\n\r\n    constructor() ERC1155(\"\") {}\r\n\r\n    struct MarketItem{\r\n        address nftContract;\r\n        address payable ownertoken;\r\n        uint256 tokenId;\r\n    }\r\n    event MarketItemCreated(\r\n        address indexed nftContract,\r\n        address ownertoken, \r\n        uint256 indexed tokenId\r\n    );\r\n\r\n    mapping(uint256 => MarketItem) public idToMarketItem;\r\n\r\n    function SetTokenAddress(address _token) external onlyOwner{\r\n        tokenERC20 = _token;\r\n    }\r\n\r\n    function Stake(address nftContract,uint256 tokenId)\r\n    public payable {\r\n\r\n        _itemIds.increment();\r\n        idToMarketItem[tokenId] = MarketItem(\r\n            nftContract,\r\n            payable(msg.sender),\r\n            tokenId\r\n        );\r\n\r\n        IERC721(nftContract).transferFrom(msg.sender, address(this), tokenId);\r\n        \r\n        emit MarketItemCreated(\r\n            nftContract,\r\n            payable(msg.sender),\r\n            tokenId\r\n        );\r\n    }\r\n\r\n    function UnStack(address nftContract,uint256 tokenId)external payable nonReentrant{\r\n        require(msg.sender == idToMarketItem[tokenId].ownertoken, \"Not Owner Token\");\r\n        IERC721(nftContract).transferFrom(address(this), msg.sender, tokenId);\r\n        IERC20(tokenERC20).transferFrom(owner(),msg.sender,1);\r\n        reset(tokenId);\r\n    }\r\n\r\n    function reset(uint256 tokenId)internal {\r\n        idToMarketItem[tokenId].nftContract = 0x0000000000000000000000000000000000000000;\r\n        idToMarketItem[tokenId].ownertoken = payable(0x0000000000000000000000000000000000000000);\r\n        idToMarketItem[tokenId].tokenId = 0;\r\n    }\r\n\r\n}\r\n\r\ncontract TokenERC721 is ERC721URIStorage{\r\n\r\n    using Counters for Counters.Counter;\r\n    using Strings for uint256;\r\n    Counters.Counter private _tokenIds;\r\n    address contractAddress;\r\n\r\n    constructor(address marketplaceAddress) ERC721(\"NFTStack\", \"STK\"){\r\n        contractAddress = marketplaceAddress;\r\n\r\n    }\r\n    \r\n    function createTokens() public returns (uint) {\r\n        _tokenIds.increment();\r\n        uint256 newItemId = _tokenIds.current();\r\n\r\n        _mint(msg.sender, newItemId);\r\n        _setTokenURI(newItemId, t());\r\n        setApprovalForAll(contractAddress, true);\r\n        return newItemId;\r\n    }\r\n\r\n\r\n    function t() private view returns(string memory){\r\n\r\n      string memory URL = \"ipfs://QmWjxHZXMXga1R3bKCbeFhszmdvT7cVYb7TxTtryi2SKSU/\";\r\n      uint256 newItemId = _tokenIds.current();\r\n      string memory baseExtension = \".json\";\r\n      return string(abi.encodePacked(URL, newItemId.toString(), baseExtension));\r\n    }\r\n}\r\n",
  "sourcePath": "C:\\Users\\Wenyx\\NftTokenStack\\my-app\\contracts\\NftTokenStack.sol",
  "compiler": {
    "name": "solc",
    "version": "0.8.13+commit.abaa5c0e.Emscripten.clang"
  },
  "schemaVersion": "3.4.6",
  "updatedAt": "2022-05-28T23:13:59.077Z",
  "networkType": "ethereum",
  "devdoc": {
    "kind": "dev",
    "methods": {
      "allowance(address,address)": {
        "details": "See {IERC20-allowance}."
      },
      "approve(address,uint256)": {
        "details": "See {IERC20-approve}. NOTE: If `amount` is the maximum `uint256`, the allowance is not updated on `transferFrom`. This is semantically equivalent to an infinite approval. Requirements: - `spender` cannot be the zero address."
      },
      "balanceOf(address)": {
        "details": "See {IERC20-balanceOf}."
      },
      "decimals()": {
        "details": "Returns the number of decimals used to get its user representation. For example, if `decimals` equals `2`, a balance of `505` tokens should be displayed to a user as `5.05` (`505 / 10 ** 2`). Tokens usually opt for a value of 18, imitating the relationship between Ether and Wei. This is the value {ERC20} uses, unless this function is overridden; NOTE: This information is only used for _display_ purposes: it in no way affects any of the arithmetic of the contract, including {IERC20-balanceOf} and {IERC20-transfer}."
      },
      "decreaseAllowance(address,uint256)": {
        "details": "Atomically decreases the allowance granted to `spender` by the caller. This is an alternative to {approve} that can be used as a mitigation for problems described in {IERC20-approve}. Emits an {Approval} event indicating the updated allowance. Requirements: - `spender` cannot be the zero address. - `spender` must have allowance for the caller of at least `subtractedValue`."
      },
      "increaseAllowance(address,uint256)": {
        "details": "Atomically increases the allowance granted to `spender` by the caller. This is an alternative to {approve} that can be used as a mitigation for problems described in {IERC20-approve}. Emits an {Approval} event indicating the updated allowance. Requirements: - `spender` cannot be the zero address."
      },
      "name()": {
        "details": "Returns the name of the token."
      },
      "owner()": {
        "details": "Returns the address of the current owner."
      },
      "paused()": {
        "details": "Returns true if the contract is paused, and false otherwise."
      },
      "renounceOwnership()": {
        "details": "Leaves the contract without owner. It will not be possible to call `onlyOwner` functions anymore. Can only be called by the current owner. NOTE: Renouncing ownership will leave the contract without an owner, thereby removing any functionality that is only available to the owner."
      },
      "symbol()": {
        "details": "Returns the symbol of the token, usually a shorter version of the name."
      },
      "totalSupply()": {
        "details": "See {IERC20-totalSupply}."
      },
      "transfer(address,uint256)": {
        "details": "See {IERC20-transfer}. Requirements: - `to` cannot be the zero address. - the caller must have a balance of at least `amount`."
      },
      "transferFrom(address,address,uint256)": {
        "details": "See {IERC20-transferFrom}. Emits an {Approval} event indicating the updated allowance. This is not required by the EIP. See the note at the beginning of {ERC20}. NOTE: Does not update the allowance if the current allowance is the maximum `uint256`. Requirements: - `from` and `to` cannot be the zero address. - `from` must have a balance of at least `amount`. - the caller must have allowance for ``from``'s tokens of at least `amount`."
      },
      "transferOwnership(address)": {
        "details": "Transfers ownership of the contract to a new account (`newOwner`). Can only be called by the current owner."
      }
    },
    "version": 1
  },
  "userdoc": {
    "kind": "user",
    "methods": {},
    "version": 1
  }
}