{
  "contractName": "TokenERC721",
  "abi": [
    {
      "inputs": [
        {
          "internalType": "address",
          "name": "marketplaceAddress",
          "type": "address"
        }
      ],
      "stateMutability": "nonpayable",
      "type": "constructor"
    },
    {
      "anonymous": false,
      "inputs": [
        {
          "indexed": true,
          "internalType": "address",
          "name": "owner",
          "type": "address"
        },
        {
          "indexed": true,
          "internalType": "address",
          "name": "approved",
          "type": "address"
        },
        {
          "indexed": true,
          "internalType": "uint256",
          "name": "tokenId",
          "type": "uint256"
        }
      ],
      "name": "Approval",
      "type": "event"
    },
    {
      "anonymous": false,
      "inputs": [
        {
          "indexed": true,
          "internalType": "address",
          "name": "owner",
          "type": "address"
        },
        {
          "indexed": true,
          "internalType": "address",
          "name": "operator",
          "type": "address"
        },
        {
          "indexed": false,
          "internalType": "bool",
          "name": "approved",
          "type": "bool"
        }
      ],
      "name": "ApprovalForAll",
      "type": "event"
    },
    {
      "anonymous": false,
      "inputs": [
        {
          "indexed": true,
          "internalType": "address",
          "name": "from",
          "type": "address"
        },
        {
          "indexed": true,
          "internalType": "address",
          "name": "to",
          "type": "address"
        },
        {
          "indexed": true,
          "internalType": "uint256",
          "name": "tokenId",
          "type": "uint256"
        }
      ],
      "name": "Transfer",
      "type": "event"
    },
    {
      "inputs": [
        {
          "internalType": "address",
          "name": "to",
          "type": "address"
        },
        {
          "internalType": "uint256",
          "name": "tokenId",
          "type": "uint256"
        }
      ],
      "name": "approve",
      "outputs": [],
      "stateMutability": "nonpayable",
      "type": "function"
    },
    {
      "inputs": [
        {
          "internalType": "address",
          "name": "owner",
          "type": "address"
        }
      ],
      "name": "balanceOf",
      "outputs": [
        {
          "internalType": "uint256",
          "name": "",
          "type": "uint256"
        }
      ],
      "stateMutability": "view",
      "type": "function",
      "constant": true
    },
    {
      "inputs": [
        {
          "internalType": "uint256",
          "name": "tokenId",
          "type": "uint256"
        }
      ],
      "name": "getApproved",
      "outputs": [
        {
          "internalType": "address",
          "name": "",
          "type": "address"
        }
      ],
      "stateMutability": "view",
      "type": "function",
      "constant": true
    },
    {
      "inputs": [
        {
          "internalType": "address",
          "name": "owner",
          "type": "address"
        },
        {
          "internalType": "address",
          "name": "operator",
          "type": "address"
        }
      ],
      "name": "isApprovedForAll",
      "outputs": [
        {
          "internalType": "bool",
          "name": "",
          "type": "bool"
        }
      ],
      "stateMutability": "view",
      "type": "function",
      "constant": true
    },
    {
      "inputs": [],
      "name": "name",
      "outputs": [
        {
          "internalType": "string",
          "name": "",
          "type": "string"
        }
      ],
      "stateMutability": "view",
      "type": "function",
      "constant": true
    },
    {
      "inputs": [
        {
          "internalType": "uint256",
          "name": "tokenId",
          "type": "uint256"
        }
      ],
      "name": "ownerOf",
      "outputs": [
        {
          "internalType": "address",
          "name": "",
          "type": "address"
        }
      ],
      "stateMutability": "view",
      "type": "function",
      "constant": true
    },
    {
      "inputs": [
        {
          "internalType": "address",
          "name": "from",
          "type": "address"
        },
        {
          "internalType": "address",
          "name": "to",
          "type": "address"
        },
        {
          "internalType": "uint256",
          "name": "tokenId",
          "type": "uint256"
        }
      ],
      "name": "safeTransferFrom",
      "outputs": [],
      "stateMutability": "nonpayable",
      "type": "function"
    },
    {
      "inputs": [
        {
          "internalType": "address",
          "name": "from",
          "type": "address"
        },
        {
          "internalType": "address",
          "name": "to",
          "type": "address"
        },
        {
          "internalType": "uint256",
          "name": "tokenId",
          "type": "uint256"
        },
        {
          "internalType": "bytes",
          "name": "_data",
          "type": "bytes"
        }
      ],
      "name": "safeTransferFrom",
      "outputs": [],
      "stateMutability": "nonpayable",
      "type": "function"
    },
    {
      "inputs": [
        {
          "internalType": "address",
          "name": "operator",
          "type": "address"
        },
        {
          "internalType": "bool",
          "name": "approved",
          "type": "bool"
        }
      ],
      "name": "setApprovalForAll",
      "outputs": [],
      "stateMutability": "nonpayable",
      "type": "function"
    },
    {
      "inputs": [
        {
          "internalType": "bytes4",
          "name": "interfaceId",
          "type": "bytes4"
        }
      ],
      "name": "supportsInterface",
      "outputs": [
        {
          "internalType": "bool",
          "name": "",
          "type": "bool"
        }
      ],
      "stateMutability": "view",
      "type": "function",
      "constant": true
    },
    {
      "inputs": [],
      "name": "symbol",
      "outputs": [
        {
          "internalType": "string",
          "name": "",
          "type": "string"
        }
      ],
      "stateMutability": "view",
      "type": "function",
      "constant": true
    },
    {
      "inputs": [
        {
          "internalType": "uint256",
          "name": "tokenId",
          "type": "uint256"
        }
      ],
      "name": "tokenURI",
      "outputs": [
        {
          "internalType": "string",
          "name": "",
          "type": "string"
        }
      ],
      "stateMutability": "view",
      "type": "function",
      "constant": true
    },
    {
      "inputs": [
        {
          "internalType": "address",
          "name": "from",
          "type": "address"
        },
        {
          "internalType": "address",
          "name": "to",
          "type": "address"
        },
        {
          "internalType": "uint256",
          "name": "tokenId",
          "type": "uint256"
        }
      ],
      "name": "transferFrom",
      "outputs": [],
      "stateMutability": "nonpayable",
      "type": "function"
    },
    {
      "inputs": [],
      "name": "createTokens",
      "outputs": [
        {
          "internalType": "uint256",
          "name": "",
          "type": "uint256"
        }
      ],
      "stateMutability": "nonpayable",
      "type": "function"
    }
  ],
  "bytecode": "0x60806040523480156200001157600080fd5b5060405162002eba38038062002eba833981810160405281019062000037919062000239565b6040518060400160405280600881526020017f4e4654537461636b0000000000000000000000000000000000000000000000008152506040518060400160405280600381526020017f53544b00000000000000000000000000000000000000000000000000000000008152508160009080519060200190620000bb9291906200011f565b508060019080519060200190620000d49291906200011f565b50505080600860006101000a81548173ffffffffffffffffffffffffffffffffffffffff021916908373ffffffffffffffffffffffffffffffffffffffff16021790555050620002cf565b8280546200012d906200029a565b90600052602060002090601f0160209004810192826200015157600085556200019d565b82601f106200016c57805160ff19168380011785556200019d565b828001600101855582156200019d579182015b828111156200019c5782518255916020019190600101906200017f565b5b509050620001ac9190620001b0565b5090565b5b80821115620001cb576000816000905550600101620001b1565b5090565b600080fd5b600073ffffffffffffffffffffffffffffffffffffffff82169050919050565b60006200020182620001d4565b9050919050565b6200021381620001f4565b81146200021f57600080fd5b50565b600081519050620002338162000208565b92915050565b600060208284031215620002525762000251620001cf565b5b6000620002628482850162000222565b91505092915050565b7f4e487b7100000000000000000000000000000000000000000000000000000000600052602260045260246000fd5b60006002820490506001821680620002b357607f821691505b602082108103620002c957620002c86200026b565b5b50919050565b612bdb80620002df6000396000f3fe608060405234801561001057600080fd5b50600436106100ea5760003560e01c806370a082311161008c578063b442726311610066578063b44272631461025b578063b88d4fde14610279578063c87b56dd14610295578063e985e9c5146102c5576100ea565b806370a08231146101f157806395d89b4114610221578063a22cb4651461023f576100ea565b8063095ea7b3116100c8578063095ea7b31461016d57806323b872dd1461018957806342842e0e146101a55780636352211e146101c1576100ea565b806301ffc9a7146100ef57806306fdde031461011f578063081812fc1461013d575b600080fd5b610109600480360381019061010491906119d5565b6102f5565b6040516101169190611a1d565b60405180910390f35b6101276103d7565b6040516101349190611ad1565b60405180910390f35b61015760048036038101906101529190611b29565b610469565b6040516101649190611b97565b60405180910390f35b61018760048036038101906101829190611bde565b6104ee565b005b6101a3600480360381019061019e9190611c1e565b610605565b005b6101bf60048036038101906101ba9190611c1e565b610665565b005b6101db60048036038101906101d69190611b29565b610685565b6040516101e89190611b97565b60405180910390f35b61020b60048036038101906102069190611c71565b610736565b6040516102189190611cad565b60405180910390f35b6102296107ed565b6040516102369190611ad1565b60405180910390f35b61025960048036038101906102549190611cf4565b61087f565b005b610263610895565b6040516102709190611cad565b60405180910390f35b610293600480360381019061028e9190611e69565b6108fe565b005b6102af60048036038101906102aa9190611b29565b610960565b6040516102bc9190611ad1565b60405180910390f35b6102df60048036038101906102da9190611eec565b610ab1565b6040516102ec9190611a1d565b60405180910390f35b60007f80ac58cd000000000000000000000000000000000000000000000000000000007bffffffffffffffffffffffffffffffffffffffffffffffffffffffff1916827bffffffffffffffffffffffffffffffffffffffffffffffffffffffff191614806103c057507f5b5e139f000000000000000000000000000000000000000000000000000000007bffffffffffffffffffffffffffffffffffffffffffffffffffffffff1916827bffffffffffffffffffffffffffffffffffffffffffffffffffffffff1916145b806103d057506103cf82610b45565b5b9050919050565b6060600080546103e690611f5b565b80601f016020809104026020016040519081016040528092919081815260200182805461041290611f5b565b801561045f5780601f106104345761010080835404028352916020019161045f565b820191906000526020600020905b81548152906001019060200180831161044257829003601f168201915b5050505050905090565b600061047482610baf565b6104b3576040517f08c379a00000000000000000000000000000000000000000000000000000000081526004016104aa90611ffe565b60405180910390fd5b6004600083815260200190815260200160002060009054906101000a900473ffffffffffffffffffffffffffffffffffffffff169050919050565b60006104f982610685565b90508073ffffffffffffffffffffffffffffffffffffffff168373ffffffffffffffffffffffffffffffffffffffff1603610569576040517f08c379a000000000000000000000000000000000000000000000000000000000815260040161056090612090565b60405180910390fd5b8073ffffffffffffffffffffffffffffffffffffffff16610588610c1b565b73ffffffffffffffffffffffffffffffffffffffff1614806105b757506105b6816105b1610c1b565b610ab1565b5b6105f6576040517f08c379a00000000000000000000000000000000000000000000000000000000081526004016105ed90612122565b60405180910390fd5b6106008383610c23565b505050565b610616610610610c1b565b82610cdc565b610655576040517f08c379a000000000000000000000000000000000000000000000000000000000815260040161064c906121b4565b60405180910390fd5b610660838383610dba565b505050565b610680838383604051806020016040528060008152506108fe565b505050565b6000806002600084815260200190815260200160002060009054906101000a900473ffffffffffffffffffffffffffffffffffffffff169050600073ffffffffffffffffffffffffffffffffffffffff168173ffffffffffffffffffffffffffffffffffffffff160361072d576040517f08c379a000000000000000000000000000000000000000000000000000000000815260040161072490612246565b60405180910390fd5b80915050919050565b60008073ffffffffffffffffffffffffffffffffffffffff168273ffffffffffffffffffffffffffffffffffffffff16036107a6576040517f08c379a000000000000000000000000000000000000000000000000000000000815260040161079d906122d8565b60405180910390fd5b600360008373ffffffffffffffffffffffffffffffffffffffff1673ffffffffffffffffffffffffffffffffffffffff168152602001908152602001600020549050919050565b6060600180546107fc90611f5b565b80601f016020809104026020016040519081016040528092919081815260200182805461082890611f5b565b80156108755780601f1061084a57610100808354040283529160200191610875565b820191906000526020600020905b81548152906001019060200180831161085857829003601f168201915b5050505050905090565b61089161088a610c1b565b8383611020565b5050565b60006108a1600761118c565b60006108ad60076111a2565b90506108b933826111b0565b6108ca816108c5611389565b611424565b6108f7600860009054906101000a900473ffffffffffffffffffffffffffffffffffffffff16600161087f565b8091505090565b61090f610909610c1b565b83610cdc565b61094e576040517f08c379a0000000000000000000000000000000000000000000000000000000008152600401610945906121b4565b60405180910390fd5b61095a84848484611498565b50505050565b606061096b82610baf565b6109aa576040517f08c379a00000000000000000000000000000000000000000000000000000000081526004016109a19061236a565b60405180910390fd5b60006006600084815260200190815260200160002080546109ca90611f5b565b80601f01602080910402602001604051908101604052809291908181526020018280546109f690611f5b565b8015610a435780601f10610a1857610100808354040283529160200191610a43565b820191906000526020600020905b815481529060010190602001808311610a2657829003601f168201915b505050505090506000610a546114f4565b90506000815103610a69578192505050610aac565b600082511115610a9e578082604051602001610a869291906123c6565b60405160208183030381529060405292505050610aac565b610aa78461150b565b925050505b919050565b6000600560008473ffffffffffffffffffffffffffffffffffffffff1673ffffffffffffffffffffffffffffffffffffffff16815260200190815260200160002060008373ffffffffffffffffffffffffffffffffffffffff1673ffffffffffffffffffffffffffffffffffffffff16815260200190815260200160002060009054906101000a900460ff16905092915050565b60007f01ffc9a7000000000000000000000000000000000000000000000000000000007bffffffffffffffffffffffffffffffffffffffffffffffffffffffff1916827bffffffffffffffffffffffffffffffffffffffffffffffffffffffff1916149050919050565b60008073ffffffffffffffffffffffffffffffffffffffff166002600084815260200190815260200160002060009054906101000a900473ffffffffffffffffffffffffffffffffffffffff1673ffffffffffffffffffffffffffffffffffffffff1614159050919050565b600033905090565b816004600083815260200190815260200160002060006101000a81548173ffffffffffffffffffffffffffffffffffffffff021916908373ffffffffffffffffffffffffffffffffffffffff160217905550808273ffffffffffffffffffffffffffffffffffffffff16610c9683610685565b73ffffffffffffffffffffffffffffffffffffffff167f8c5be1e5ebec7d5bd14f71427d1e84f3dd0314c0f7b2291e5b200ac8c7c3b92560405160405180910390a45050565b6000610ce782610baf565b610d26576040517f08c379a0000000000000000000000000000000000000000000000000000000008152600401610d1d9061245c565b60405180910390fd5b6000610d3183610685565b90508073ffffffffffffffffffffffffffffffffffffffff168473ffffffffffffffffffffffffffffffffffffffff161480610d735750610d728185610ab1565b5b80610db157508373ffffffffffffffffffffffffffffffffffffffff16610d9984610469565b73ffffffffffffffffffffffffffffffffffffffff16145b91505092915050565b8273ffffffffffffffffffffffffffffffffffffffff16610dda82610685565b73ffffffffffffffffffffffffffffffffffffffff1614610e30576040517f08c379a0000000000000000000000000000000000000000000000000000000008152600401610e27906124ee565b60405180910390fd5b600073ffffffffffffffffffffffffffffffffffffffff168273ffffffffffffffffffffffffffffffffffffffff1603610e9f576040517f08c379a0000000000000000000000000000000000000000000000000000000008152600401610e9690612580565b60405180910390fd5b610eaa8383836115b2565b610eb5600082610c23565b6001600360008573ffffffffffffffffffffffffffffffffffffffff1673ffffffffffffffffffffffffffffffffffffffff1681526020019081526020016000206000828254610f0591906125cf565b925050819055506001600360008473ffffffffffffffffffffffffffffffffffffffff1673ffffffffffffffffffffffffffffffffffffffff1681526020019081526020016000206000828254610f5c9190612603565b92505081905550816002600083815260200190815260200160002060006101000a81548173ffffffffffffffffffffffffffffffffffffffff021916908373ffffffffffffffffffffffffffffffffffffffff160217905550808273ffffffffffffffffffffffffffffffffffffffff168473ffffffffffffffffffffffffffffffffffffffff167fddf252ad1be2c89b69c2b068fc378daa952ba7f163c4a11628f55a4df523b3ef60405160405180910390a461101b8383836115b7565b505050565b8173ffffffffffffffffffffffffffffffffffffffff168373ffffffffffffffffffffffffffffffffffffffff160361108e576040517f08c379a0000000000000000000000000000000000000000000000000000000008152600401611085906126a5565b60405180910390fd5b80600560008573ffffffffffffffffffffffffffffffffffffffff1673ffffffffffffffffffffffffffffffffffffffff16815260200190815260200160002060008473ffffffffffffffffffffffffffffffffffffffff1673ffffffffffffffffffffffffffffffffffffffff16815260200190815260200160002060006101000a81548160ff0219169083151502179055508173ffffffffffffffffffffffffffffffffffffffff168373ffffffffffffffffffffffffffffffffffffffff167f17307eab39ab6107e8899845ad3d59bd9653f200f220920489ca2b5937696c318360405161117f9190611a1d565b60405180910390a3505050565b6001816000016000828254019250508190555050565b600081600001549050919050565b600073ffffffffffffffffffffffffffffffffffffffff168273ffffffffffffffffffffffffffffffffffffffff160361121f576040517f08c379a000000000000000000000000000000000000000000000000000000000815260040161121690612711565b60405180910390fd5b61122881610baf565b15611268576040517f08c379a000000000000000000000000000000000000000000000000000000000815260040161125f9061277d565b60405180910390fd5b611274600083836115b2565b6001600360008473ffffffffffffffffffffffffffffffffffffffff1673ffffffffffffffffffffffffffffffffffffffff16815260200190815260200160002060008282546112c49190612603565b92505081905550816002600083815260200190815260200160002060006101000a81548173ffffffffffffffffffffffffffffffffffffffff021916908373ffffffffffffffffffffffffffffffffffffffff160217905550808273ffffffffffffffffffffffffffffffffffffffff16600073ffffffffffffffffffffffffffffffffffffffff167fddf252ad1be2c89b69c2b068fc378daa952ba7f163c4a11628f55a4df523b3ef60405160405180910390a4611385600083836115b7565b5050565b60606000604051806060016040528060368152602001612b7060369139905060006113b460076111a2565b905060006040518060400160405280600581526020017f2e6a736f6e0000000000000000000000000000000000000000000000000000008152509050826113fa836115bc565b8260405160200161140d9392919061279d565b604051602081830303815290604052935050505090565b61142d82610baf565b61146c576040517f08c379a000000000000000000000000000000000000000000000000000000000815260040161146390612840565b60405180910390fd5b806006600084815260200190815260200160002090805190602001906114939291906118c6565b505050565b6114a3848484610dba565b6114af8484848461171c565b6114ee576040517f08c379a00000000000000000000000000000000000000000000000000000000081526004016114e5906128d2565b60405180910390fd5b50505050565b606060405180602001604052806000815250905090565b606061151682610baf565b611555576040517f08c379a000000000000000000000000000000000000000000000000000000000815260040161154c90612964565b60405180910390fd5b600061155f6114f4565b9050600081511161157f57604051806020016040528060008152506115aa565b80611589846115bc565b60405160200161159a9291906123c6565b6040516020818303038152906040525b915050919050565b505050565b505050565b606060008203611603576040518060400160405280600181526020017f30000000000000000000000000000000000000000000000000000000000000008152509050611717565b600082905060005b6000821461163557808061161e90612984565b915050600a8261162e91906129fb565b915061160b565b60008167ffffffffffffffff81111561165157611650611d3e565b5b6040519080825280601f01601f1916602001820160405280156116835781602001600182028036833780820191505090505b5090505b600085146117105760018261169c91906125cf565b9150600a856116ab9190612a2c565b60306116b79190612603565b60f81b8183815181106116cd576116cc612a5d565b5b60200101907effffffffffffffffffffffffffffffffffffffffffffffffffffffffffffff1916908160001a905350600a8561170991906129fb565b9450611687565b8093505050505b919050565b600061173d8473ffffffffffffffffffffffffffffffffffffffff166118a3565b15611896578373ffffffffffffffffffffffffffffffffffffffff1663150b7a02611766610c1b565b8786866040518563ffffffff1660e01b81526004016117889493929190612ae1565b6020604051808303816000875af19250505080156117c457506040513d601f19601f820116820180604052508101906117c19190612b42565b60015b611846573d80600081146117f4576040519150601f19603f3d011682016040523d82523d6000602084013e6117f9565b606091505b50600081510361183e576040517f08c379a0000000000000000000000000000000000000000000000000000000008152600401611835906128d2565b60405180910390fd5b805181602001fd5b63150b7a0260e01b7bffffffffffffffffffffffffffffffffffffffffffffffffffffffff1916817bffffffffffffffffffffffffffffffffffffffffffffffffffffffff19161491505061189b565b600190505b949350505050565b6000808273ffffffffffffffffffffffffffffffffffffffff163b119050919050565b8280546118d290611f5b565b90600052602060002090601f0160209004810192826118f4576000855561193b565b82601f1061190d57805160ff191683800117855561193b565b8280016001018555821561193b579182015b8281111561193a57825182559160200191906001019061191f565b5b509050611948919061194c565b5090565b5b8082111561196557600081600090555060010161194d565b5090565b6000604051905090565b600080fd5b600080fd5b60007fffffffff0000000000000000000000000000000000000000000000000000000082169050919050565b6119b28161197d565b81146119bd57600080fd5b50565b6000813590506119cf816119a9565b92915050565b6000602082840312156119eb576119ea611973565b5b60006119f9848285016119c0565b91505092915050565b60008115159050919050565b611a1781611a02565b82525050565b6000602082019050611a326000830184611a0e565b92915050565b600081519050919050565b600082825260208201905092915050565b60005b83811015611a72578082015181840152602081019050611a57565b83811115611a81576000848401525b50505050565b6000601f19601f8301169050919050565b6000611aa382611a38565b611aad8185611a43565b9350611abd818560208601611a54565b611ac681611a87565b840191505092915050565b60006020820190508181036000830152611aeb8184611a98565b905092915050565b6000819050919050565b611b0681611af3565b8114611b1157600080fd5b50565b600081359050611b2381611afd565b92915050565b600060208284031215611b3f57611b3e611973565b5b6000611b4d84828501611b14565b91505092915050565b600073ffffffffffffffffffffffffffffffffffffffff82169050919050565b6000611b8182611b56565b9050919050565b611b9181611b76565b82525050565b6000602082019050611bac6000830184611b88565b92915050565b611bbb81611b76565b8114611bc657600080fd5b50565b600081359050611bd881611bb2565b92915050565b60008060408385031215611bf557611bf4611973565b5b6000611c0385828601611bc9565b9250506020611c1485828601611b14565b9150509250929050565b600080600060608486031215611c3757611c36611973565b5b6000611c4586828701611bc9565b9350506020611c5686828701611bc9565b9250506040611c6786828701611b14565b9150509250925092565b600060208284031215611c8757611c86611973565b5b6000611c9584828501611bc9565b91505092915050565b611ca781611af3565b82525050565b6000602082019050611cc26000830184611c9e565b92915050565b611cd181611a02565b8114611cdc57600080fd5b50565b600081359050611cee81611cc8565b92915050565b60008060408385031215611d0b57611d0a611973565b5b6000611d1985828601611bc9565b9250506020611d2a85828601611cdf565b9150509250929050565b600080fd5b600080fd5b7f4e487b7100000000000000000000000000000000000000000000000000000000600052604160045260246000fd5b611d7682611a87565b810181811067ffffffffffffffff82111715611d9557611d94611d3e565b5b80604052505050565b6000611da8611969565b9050611db48282611d6d565b919050565b600067ffffffffffffffff821115611dd457611dd3611d3e565b5b611ddd82611a87565b9050602081019050919050565b82818337600083830152505050565b6000611e0c611e0784611db9565b611d9e565b905082815260208101848484011115611e2857611e27611d39565b5b611e33848285611dea565b509392505050565b600082601f830112611e5057611e4f611d34565b5b8135611e60848260208601611df9565b91505092915050565b60008060008060808587031215611e8357611e82611973565b5b6000611e9187828801611bc9565b9450506020611ea287828801611bc9565b9350506040611eb387828801611b14565b925050606085013567ffffffffffffffff811115611ed457611ed3611978565b5b611ee087828801611e3b565b91505092959194509250565b60008060408385031215611f0357611f02611973565b5b6000611f1185828601611bc9565b9250506020611f2285828601611bc9565b9150509250929050565b7f4e487b7100000000000000000000000000000000000000000000000000000000600052602260045260246000fd5b60006002820490506001821680611f7357607f821691505b602082108103611f8657611f85611f2c565b5b50919050565b7f4552433732313a20617070726f76656420717565727920666f72206e6f6e657860008201527f697374656e7420746f6b656e0000000000000000000000000000000000000000602082015250565b6000611fe8602c83611a43565b9150611ff382611f8c565b604082019050919050565b6000602082019050818103600083015261201781611fdb565b9050919050565b7f4552433732313a20617070726f76616c20746f2063757272656e74206f776e6560008201527f7200000000000000000000000000000000000000000000000000000000000000602082015250565b600061207a602183611a43565b91506120858261201e565b604082019050919050565b600060208201905081810360008301526120a98161206d565b9050919050565b7f4552433732313a20617070726f76652063616c6c6572206973206e6f74206f7760008201527f6e6572206e6f7220617070726f76656420666f7220616c6c0000000000000000602082015250565b600061210c603883611a43565b9150612117826120b0565b604082019050919050565b6000602082019050818103600083015261213b816120ff565b9050919050565b7f4552433732313a207472616e736665722063616c6c6572206973206e6f74206f60008201527f776e6572206e6f7220617070726f766564000000000000000000000000000000602082015250565b600061219e603183611a43565b91506121a982612142565b604082019050919050565b600060208201905081810360008301526121cd81612191565b9050919050565b7f4552433732313a206f776e657220717565727920666f72206e6f6e657869737460008201527f656e7420746f6b656e0000000000000000000000000000000000000000000000602082015250565b6000612230602983611a43565b915061223b826121d4565b604082019050919050565b6000602082019050818103600083015261225f81612223565b9050919050565b7f4552433732313a2062616c616e636520717565727920666f7220746865207a6560008201527f726f206164647265737300000000000000000000000000000000000000000000602082015250565b60006122c2602a83611a43565b91506122cd82612266565b604082019050919050565b600060208201905081810360008301526122f1816122b5565b9050919050565b7f45524337323155524953746f726167653a2055524920717565727920666f722060008201527f6e6f6e6578697374656e7420746f6b656e000000000000000000000000000000602082015250565b6000612354603183611a43565b915061235f826122f8565b604082019050919050565b6000602082019050818103600083015261238381612347565b9050919050565b600081905092915050565b60006123a082611a38565b6123aa818561238a565b93506123ba818560208601611a54565b80840191505092915050565b60006123d28285612395565b91506123de8284612395565b91508190509392505050565b7f4552433732313a206f70657261746f7220717565727920666f72206e6f6e657860008201527f697374656e7420746f6b656e0000000000000000000000000000000000000000602082015250565b6000612446602c83611a43565b9150612451826123ea565b604082019050919050565b6000602082019050818103600083015261247581612439565b9050919050565b7f4552433732313a207472616e736665722066726f6d20696e636f72726563742060008201527f6f776e6572000000000000000000000000000000000000000000000000000000602082015250565b60006124d8602583611a43565b91506124e38261247c565b604082019050919050565b60006020820190508181036000830152612507816124cb565b9050919050565b7f4552433732313a207472616e7366657220746f20746865207a65726f2061646460008201527f7265737300000000000000000000000000000000000000000000000000000000602082015250565b600061256a602483611a43565b91506125758261250e565b604082019050919050565b600060208201905081810360008301526125998161255d565b9050919050565b7f4e487b7100000000000000000000000000000000000000000000000000000000600052601160045260246000fd5b60006125da82611af3565b91506125e583611af3565b9250828210156125f8576125f76125a0565b5b828203905092915050565b600061260e82611af3565b915061261983611af3565b9250827fffffffffffffffffffffffffffffffffffffffffffffffffffffffffffffffff0382111561264e5761264d6125a0565b5b828201905092915050565b7f4552433732313a20617070726f766520746f2063616c6c657200000000000000600082015250565b600061268f601983611a43565b915061269a82612659565b602082019050919050565b600060208201905081810360008301526126be81612682565b9050919050565b7f4552433732313a206d696e7420746f20746865207a65726f2061646472657373600082015250565b60006126fb602083611a43565b9150612706826126c5565b602082019050919050565b6000602082019050818103600083015261272a816126ee565b9050919050565b7f4552433732313a20746f6b656e20616c7265616479206d696e74656400000000600082015250565b6000612767601c83611a43565b915061277282612731565b602082019050919050565b600060208201905081810360008301526127968161275a565b9050919050565b60006127a98286612395565b91506127b58285612395565b91506127c18284612395565b9150819050949350505050565b7f45524337323155524953746f726167653a2055524920736574206f66206e6f6e60008201527f6578697374656e7420746f6b656e000000000000000000000000000000000000602082015250565b600061282a602e83611a43565b9150612835826127ce565b604082019050919050565b600060208201905081810360008301526128598161281d565b9050919050565b7f4552433732313a207472616e7366657220746f206e6f6e20455243373231526560008201527f63656976657220696d706c656d656e7465720000000000000000000000000000602082015250565b60006128bc603283611a43565b91506128c782612860565b604082019050919050565b600060208201905081810360008301526128eb816128af565b9050919050565b7f4552433732314d657461646174613a2055524920717565727920666f72206e6f60008201527f6e6578697374656e7420746f6b656e0000000000000000000000000000000000602082015250565b600061294e602f83611a43565b9150612959826128f2565b604082019050919050565b6000602082019050818103600083015261297d81612941565b9050919050565b600061298f82611af3565b91507fffffffffffffffffffffffffffffffffffffffffffffffffffffffffffffffff82036129c1576129c06125a0565b5b600182019050919050565b7f4e487b7100000000000000000000000000000000000000000000000000000000600052601260045260246000fd5b6000612a0682611af3565b9150612a1183611af3565b925082612a2157612a206129cc565b5b828204905092915050565b6000612a3782611af3565b9150612a4283611af3565b925082612a5257612a516129cc565b5b828206905092915050565b7f4e487b7100000000000000000000000000000000000000000000000000000000600052603260045260246000fd5b600081519050919050565b600082825260208201905092915050565b6000612ab382612a8c565b612abd8185612a97565b9350612acd818560208601611a54565b612ad681611a87565b840191505092915050565b6000608082019050612af66000830187611b88565b612b036020830186611b88565b612b106040830185611c9e565b8181036060830152612b228184612aa8565b905095945050505050565b600081519050612b3c816119a9565b92915050565b600060208284031215612b5857612b57611973565b5b6000612b6684828501612b2d565b9150509291505056fe697066733a2f2f516d576a78485a584d586761315233624b4362654668737a6d6476543763565962375478547472796932534b53552fa2646970667358221220e0683d2df31d469c5449860acbb3699452488ef734c53bed6e7f55feb868f43864736f6c634300080d0033",
  "immutableReferences": {},
  "source": "//SPDX-License-Identifier:MIT\r\n\r\npragma solidity ^0.8.0;\r\n\r\n\r\nimport \"../node_modules/@openzeppelin/contracts/utils/Counters.sol\";\r\nimport \"../node_modules/@openzeppelin/contracts/token/ERC721/extensions/ERC721URIStorage.sol\";\r\nimport \"../node_modules/@openzeppelin/contracts/security/ReentrancyGuard.sol\";\r\nimport \"../node_modules/@openzeppelin/contracts/token/ERC721/ERC721.sol\";\r\nimport \"../node_modules/@openzeppelin/contracts/utils/Strings.sol\";\r\nimport \"../node_modules/@openzeppelin/contracts/access/Ownable.sol\";\r\n\r\nimport \"../node_modules/@openzeppelin/contracts/token/ERC1155/ERC1155.sol\";\r\n\r\n\r\nimport \"../node_modules/@openzeppelin/contracts/token/ERC20/ERC20.sol\";\r\nimport \"../node_modules/@openzeppelin/contracts/security/Pausable.sol\";\r\n\r\ncontract MyTokenERC20 is ERC20, Pausable, Ownable {\r\n\r\n    address Reward;\r\n\r\n    constructor(address reward) ERC20(\"TokenReward\", \"RWD\") {\r\n        _mint(msg.sender,1000);\r\n        Reward = reward;\r\n        approve(Reward, totalSupply());\r\n    }\r\n\r\n    function pause() public onlyOwner {\r\n        _pause();\r\n    }\r\n\r\n    function unpause() public onlyOwner {\r\n        _unpause();\r\n    }\r\n\r\n    function _beforeTokenTransfer(address from, address to, uint256 amount)\r\n        internal\r\n        whenNotPaused\r\n        override\r\n    {\r\n        super._beforeTokenTransfer(from, to, amount);\r\n    }\r\n}\r\n\r\ncontract MyToken1155 is ERC1155, Ownable, ReentrancyGuard {\r\n\r\n    using Counters for Counters.Counter;\r\n    Counters.Counter private _itemIds;\r\n\r\n    address public tokenERC20;\r\n\r\n    constructor() ERC1155(\"\") {}\r\n\r\n    struct MarketItem{\r\n        address nftContract;\r\n        address payable ownertoken;\r\n        uint256 tokenId;\r\n    }\r\n    event MarketItemCreated(\r\n        address indexed nftContract,\r\n        address ownertoken, \r\n        uint256 indexed tokenId\r\n    );\r\n\r\n    mapping(uint256 => MarketItem) public idToMarketItem;\r\n\r\n    function SetTokenAddress(address _token) external onlyOwner{\r\n        tokenERC20 = _token;\r\n    }\r\n\r\n    function Stake(address nftContract,uint256 tokenId)\r\n    public payable {\r\n\r\n        _itemIds.increment();\r\n        idToMarketItem[tokenId] = MarketItem(\r\n            nftContract,\r\n            payable(msg.sender),\r\n            tokenId\r\n        );\r\n\r\n        IERC721(nftContract).transferFrom(msg.sender, address(this), tokenId);\r\n        \r\n        emit MarketItemCreated(\r\n            nftContract,\r\n            payable(msg.sender),\r\n            tokenId\r\n        );\r\n    }\r\n\r\n    function UnStack(address nftContract,uint256 tokenId)external payable nonReentrant{\r\n        require(msg.sender == idToMarketItem[tokenId].ownertoken, \"Not Owner Token\");\r\n        IERC721(nftContract).transferFrom(address(this), msg.sender, tokenId);\r\n        IERC20(tokenERC20).transferFrom(owner(),msg.sender,1);\r\n        reset(tokenId);\r\n    }\r\n\r\n    function reset(uint256 tokenId)internal {\r\n        idToMarketItem[tokenId].nftContract = 0x0000000000000000000000000000000000000000;\r\n        idToMarketItem[tokenId].ownertoken = payable(0x0000000000000000000000000000000000000000);\r\n        idToMarketItem[tokenId].tokenId = 0;\r\n    }\r\n\r\n}\r\n\r\ncontract TokenERC721 is ERC721URIStorage{\r\n\r\n    using Counters for Counters.Counter;\r\n    using Strings for uint256;\r\n    Counters.Counter private _tokenIds;\r\n    address contractAddress;\r\n\r\n    constructor(address marketplaceAddress) ERC721(\"NFTStack\", \"STK\"){\r\n        contractAddress = marketplaceAddress;\r\n\r\n    }\r\n    \r\n    function createTokens() public returns (uint) {\r\n        _tokenIds.increment();\r\n        uint256 newItemId = _tokenIds.current();\r\n\r\n        _mint(msg.sender, newItemId);\r\n        _setTokenURI(newItemId, t());\r\n        setApprovalForAll(contractAddress, true);\r\n        return newItemId;\r\n    }\r\n\r\n\r\n    function t() private view returns(string memory){\r\n\r\n      string memory URL = \"ipfs://QmWjxHZXMXga1R3bKCbeFhszmdvT7cVYb7TxTtryi2SKSU/\";\r\n      uint256 newItemId = _tokenIds.current();\r\n      string memory baseExtension = \".json\";\r\n      return string(abi.encodePacked(URL, newItemId.toString(), baseExtension));\r\n    }\r\n}\r\n",
  "sourcePath": "C:\\Users\\Wenyx\\NftTokenStack\\my-app\\contracts\\NftTokenStack.sol",
  "compiler": {
    "name": "solc",
    "version": "0.8.13+commit.abaa5c0e.Emscripten.clang"
  },
  "schemaVersion": "3.4.6",
  "updatedAt": "2022-05-28T23:13:59.086Z",
  "networkType": "ethereum",
  "devdoc": {
    "kind": "dev",
    "methods": {
      "approve(address,uint256)": {
        "details": "See {IERC721-approve}."
      },
      "balanceOf(address)": {
        "details": "See {IERC721-balanceOf}."
      },
      "getApproved(uint256)": {
        "details": "See {IERC721-getApproved}."
      },
      "isApprovedForAll(address,address)": {
        "details": "See {IERC721-isApprovedForAll}."
      },
      "name()": {
        "details": "See {IERC721Metadata-name}."
      },
      "ownerOf(uint256)": {
        "details": "See {IERC721-ownerOf}."
      },
      "safeTransferFrom(address,address,uint256)": {
        "details": "See {IERC721-safeTransferFrom}."
      },
      "safeTransferFrom(address,address,uint256,bytes)": {
        "details": "See {IERC721-safeTransferFrom}."
      },
      "setApprovalForAll(address,bool)": {
        "details": "See {IERC721-setApprovalForAll}."
      },
      "supportsInterface(bytes4)": {
        "details": "See {IERC165-supportsInterface}."
      },
      "symbol()": {
        "details": "See {IERC721Metadata-symbol}."
      },
      "tokenURI(uint256)": {
        "details": "See {IERC721Metadata-tokenURI}."
      },
      "transferFrom(address,address,uint256)": {
        "details": "See {IERC721-transferFrom}."
      }
    },
    "version": 1
  },
  "userdoc": {
    "kind": "user",
    "methods": {},
    "version": 1
  }
}